:1000000014EF01F00000000000EF00F0000000001D
:0A0010000000000000000000F3D71C
:10001C00086A080E0C6E003408360450085ED8B01E
:0E002C0002D00826D89000360C2EF5D7120010
:04003A00896A1200BD
:10003E00086A096A100E0C6E01340836093604502F
:10004E00085E0550D8A0053C095ED8B007D0045014
:10005E0008260550D8B0053C0926D8900036013642
:06006E000C2EEAD712007F
:100074000A0E046E1EC000F0CFDF08C000F03C0E74
:100084000024F66E020EF76E000EF722000EF86ED4
:0C009400000EF8220900F5CF00F0120069
:1000A000150ED96E000EDA6E1E50D926D8B0DA2A97
:1000B0004A0EDE24F66E020EF76E000EF722000ED8
:1000C000F86E000EF8220900F5CF00F000C089FF9D
:0200D00012001C
:1000D200EA50E25C02E1E950E15C02E2E66AF8D74A
:0200E20012000A
:1000E4000F01386B3B6B956A929092929294929620
:1000F4000A0E046E1DC000F08FDF08C000F000C0BF
:1001040019F00A0E046E1DC000F086DF0A0E046E9C
:1001140083DF08C000F000C01AF0640E046E1DC036
:1001240000F07ADF0A0E046E77DF08C000F000C02A
:100134001BF0E80E046E030E056E1DC000F0000EE9
:10014400016E7BDF0A0E046E000E056E76DF08C0BA
:0C01540000F009C001F000C01CF0120017
:100160000900F5CFE6FF0006FBE10106F9E1120008
:1001700064DF8C6AD50E0D6E0D2EFED719C01EF0F1
:1001800079DF00C08CFF1E6A8BDF0A0E0C6E580EE2
:100190000D6E0D2EFED70C2EFCD700004EDF8C6AA4
:1001A000D50E0D6E0D2EFED71AC01EF063DF00C0F7
:1001B0008CFF010E1E6E74DF0A0E0C6E580E0D6E53
:1001C0000D2EFED70C2EFCD7000037DF8C6AD50E23
:1001D0000D6E0D2EFED71BC01EF04CDF00C08CFF35
:1001E000020E1E6E5DDF0A0E0C6E580E0D6E0D2E89
:1001F000FED70C2EFCD7000020DF8C6AD50E0D6ECA
:100200000D2EFED71CC01EF035DF00C08CFF030E84
:100210001E6E46DF0A0E0C6E580E0D6E0D2EFED7AA
:080220000C2EFCD700001200B7
:1002280036EC01F027EC01F0940E1D6E57DF9CDFD1
:04023800FED7FFD717
:10024E0010EE15F0040E006E010E016E460EF66EE7
:0E025E00020EF76E000EF86EB0EC00F012000B
:0E026C0010EE15F000EE1DF069EC00F012002F
:0A023C003F065B4F666D7D077F6F84
:0402460003020100AE
:04024A0001020408A1
:020000040030CA
:0D000100331F3CFFBF85FF0FC00FE00F4015
:00000001FF
