:040000001FEF00F0FE
:100008004C82D9CF01F0DACF02F0F2A40EEF00F063
:1000180010EF00F019EF00F01CEC0FF0010E0001DA
:100028006427000E65236623672302C0DAFF01C038
:0A003800D9FF4C92110005EF11F002
:10060000003F065B4F666D7D077F6F54696D653AED
:1006100020253032643A253032643A253032642065
:100620002000253032643A253032642020202020FA
:1006300020202020202000543A2530326420483ADF
:10064000257320413A257320005365742054656D4D
:1006500070204C4F573A2020200053657420546579
:100660006D7020484947483A202000486561742051
:10067000456E642054696D653A20200053617665AB
:100680002053657474696E67733F20200055503D98
:1006900059657320444F574E3D4E6F2020004865EA
:1006A00061742053746172742054696D653A002539
:1006B000642043202020202020202000286E756CFC
:1006C0006C2900536176656421004F4E20004F462F
:0906D00046002D2D004F4E0000E4
:1006DA00A0EC0AF00C6E0C50D8A476EF03F078EF79
:1006EA0003F07AEF03F0B0EF04F000017B51D8B4C5
:1006FA0081EF03F083EF03F08BEF04F07B6BB0EF35
:10070A0004F0030E0C18D8A48DEF03F08FEF03F05A
:10071A00B0EF04F0010E4A6EB0EF04F00C04D8A456
:10072A0099EF03F09BEF03F09CEF03F09C2B020E72
:10073A000C18D8A4A3EF03F0A5EF03F0A6EF03F07B
:10074A009C07030E0C18D8A4ADEF03F0AFEF03F02B
:10075A00B0EF04F0020E4A6EB0EF04F00C04D8A415
:10076A00B9EF03F0BBEF03F0BCEF03F09D2B020ED1
:10077A000C18D8A4C3EF03F0C5EF03F0C6EF03F0DB
:10078A009D07030E0C18D8A4CDEF03F0CFEF03F0AA
:10079A00D1EF03F0030E4A6E040E0C18D8A4D8EF5A
:1007AA0003F0DAEF03F0B0EF04F08FEF03F00C047C
:1007BA00D8A4E2EF03F0E4EF03F0E5EF03F09E2B99
:1007CA00020E0C18D8A4ECEF03F0EEEF03F0F0EFF2
:1007DA0003F00F0E9F273B0E9F65F6EF03F0F8EF2D
:1007EA0003F0F9EF03F09F6B170E9E65FFEF03F01E
:1007FA0001EF04F002EF04F09E6B030E0C18D8A46C
:10080A0009EF04F00BEF04F00DEF04F0040E4A6E4A
:10081A00040E0C18D8A414EF04F016EF04F0B0EF8D
:10082A0004F0AFEF03F0020E0C18D8A41FEF04F087
:10083A0021EF04F022EF04F0A02B0C04D8A428EF37
:10084A0004F02AEF04F02CEF04F00F0EA1273B0E60
:10085A00A16532EF04F034EF04F035EF04F0A16B38
:10086A00170EA0653BEF04F03DEF04F03EEF04F0F5
:10087A00A06B030E0C18D8A445EF04F047EF04F060
:10088A0049EF04F0070E4A6E040E0C18D8A450EF74
:10089A0004F052EF04F0B0EF04F0030E4A6EB0EF2A
:1008AA0004F00C04D8A45CEF04F05EEF04F07FEFD0
:1008BA0004F09C0E056E12EC0BF000EC12F0000E28
:1008CA00076E010E98EC11F0C30E066E0650D8A4FE
:1008DA00060E076E50EC10F00B0E0B6E260E0A6E0B
:1008EA005E0EE82EFED70A2EFCD70B2EFAD74A6ADE
:1008FA000001C069020E0C18D8A486EF04F088EF34
:10090A0004F0B0EF04F04A6AB0EF04F04A500A6EFD
:10091A000B6A0B50000AD8B495EF04F0B0EF04F05C
:10092A000A50000AD8B486EF03F0010AD8B493EF4C
:10093A0003F0030AD8B4B3EF03F0010AD8B4DCEF2A
:10094A0003F0070AD8B418EF04F0030AD8B456EF34
:10095A0004F0B0EF04F012002350D96EDA6ADFCF48
:10096A00F6FF060EF76E0800F550250AD8A4C0EF68
:10097A0004F0C2EF04F0C5EF05F02350D96EDA6A2D
:10098A00DF2A000E00016D6F000E6C6F6CC048F01C
:10099A006E696F692C6AECEF04F048822350D96EB5
:1009AA00DA6ADF2AECEF04F0010E2C6EECEF04F0A9
:1009BA002350D96EDA6ADFCFF6FF060EF76E08000B
:1009CA00F550300AD8B4D2EF04F0D9EF04F02C5025
:1009DA00D8B4F2EF04F0F4EF04F0DDEF04F023C032
:1009EA0003F024C004F03FEC0DF003C06CF004C027
:1009FA006DF000016DBF06EF05F004EF05F00BEF97
:100A0A0005F048806C6D6D1FD8B06D2B2350D96EE0
:100A1A00DA6ADF502B6E2BC0F6FF060EF76E08005F
:100A2A00F550640AD8B41CEF05F01EEF05F02CEF60
:100A3A0005F02BC0F6FF060EF76E0800F550690A9E
:100A4A00D8A42AEF05F02CEF05F048EF05F024C0F2
:100A5A00D9FF25C0DAFF020EDF26DF5CD96EDA6A1B
:100A6A00DECF27F0DECF28F02350D96EDA6A2B28A2
:100A7A00DF6E22C017F027C018F028C019F0FBEC6F
:100A8A0006F0D6EF05F02C6A2350D96EDA6ADFCF6A
:100A9A00F6FF060EF76E0800F550730AD8A458EF51
:100AAA0005F05AEF05F062EF05F02350D96EDA6AC5
:100ABA00DF2A010E2C6EA4EF05F02350D96EDA6AF4
:100ACA00DFCFF6FF060EF76E0800F5506C0AD8A4C1
:100ADA0071EF05F073EF05F0A4EF05F02350D96E1E
:100AEA00DA6ADF50266E010E262626C0F6FF060EAB
:100AFA00F76E0800F5506C0AD8A486EF05F088EF67
:100B0A0005F0A4EF05F02350D96EDA6ADF50266E9D
:100B1A00020E262626C0F6FF060EF76E0800F550CE
:100B2A00730AD8A49BEF05F09DEF05F0A4EF05F03A
:100B3A002350D96EDA6A030EDF265EEF05F02C50D9
:100B4A00D8B4AAEF05F0ACEF05F0BFEF05F022C06C
:100B5A000BF024C0D9FF25C0DAFF020EDF26DF5CC6
:100B6A00D96EDA6ADECF0CF0DECF0DF0ADEC07F00D
:100B7A00D6EF05F02350D96EDA6ADF2AD6EF05F0F0
:100B8A002350D96EDA6ADFCFF6FF060EF76E080039
:100B9A00F550036E046A22C005F0EAEC0CF0BFEFD0
:100BAA0005F012000001C0514A18D8B4DFEF05F071
:100BBA00E1EF05F0D5EF06F000EC12F04AC0C0F004
:100BCA00D5EF06F0AD0E316E0B0E326EA8C033F0C3
:100BDA00346AA7C035F0366AA6C037F0386A1FEC07
:100BEA0011F0000E076E010E98EC11F0AD0E066EB4
:100BFA00076A50EC10F00001A451D8A407EF06F0E0
:100C0A0009EF06F00DEF06F0D20EBE6F0FEF06F0F9
:100C1A00D50EBE6F4B50D8A415EF06F017EF06F0AD
:100C2A001BEF06F0CE0EBF6F1DEF06F0CA0EBF6FA8
:100C3A00AD0E316E370E326E70C033F071C034F0C3
:100C4A00BFC035F03550D8A4060E366EBEC037F098
:100C5A003750D8A4060E386E1FEC11F0000E076E3E
:100C6A00020E98EC11F0AD0E066E076A50EC10F009
:100C7A00FAEF06F0000E076E010E98EC11F0490E1D
:100C8A00066E0650D8A4060E076E50EC10F0AD0E94
:100C9A00316EAF0E326E9CC033F0346A1FEC11F025
:100CAA00000E076E020E98EC11F038EF06F0000EF7
:100CBA00076E010E98EC11F05A0E066E0650D8A473
:100CCA00060E076E50EC10F0AD0E316EAF0E326E9E
:100CDA009DC033F0346A1FEC11F0000E076E020E4D
:100CEA0098EC11F038EF06F0000E076E010E98EC42
:100CFA0011F09E0E066E0650D8A4060E076E50EC32
:100D0A0010F0AD0E316E220E326E9EC033F0346A90
:100D1A009FC035F0366A1FEC11F0000E076E020E06
:100D2A0098EC11F038EF06F0000E076E010E98EC01
:100D3A0011F06B0E066E0650D8A4060E076E50EC24
:100D4A0010F0AD0E316E220E326EA0C033F0346A4E
:100D5A00A1C035F0366A1FEC11F0000E076E020EC4
:100D6A0098EC11F038EF06F0000E076E010E98ECC1
:100D7A0011F07C0E066E0650D8A4060E076E50ECD3
:100D8A0010F0000E076E020E98EC11F08D0E066E32
:100D9A000650D8A4060E076E50EC10F0FAEF06F0D3
:100DAA004A50456E466A4650000AD8B4DFEF06F04C
:100DBA00FAEF06F04550000AD8B4E7EF05F0010A49
:100DCA00D8B43FEF06F0030AD8B45CEF06F0010A84
:100DDA00D8B479EF06F0070AD8B499EF06F0030AF7
:100DEA00D8B4B9EF06F0FAEF06F01200010E1C6E45
:100DFA0019BE02EF07F005EF07F0010E06EF07F044
:100E0A00000E1F6E6CC01DF06DC01EF01F50D8B4CE
:100E1A0011EF07F013EF07F02AEF07F01D06D8A02D
:100E2A001E061F50D8A41CEF07F01EEF07F024EF90
:100E3A0007F0000E1B6E2B0E1A6E28EF07F0000E3D
:100E4A001B6E2D0E1A6E1AC01FF0000E216E1F0E99
:100E5A00206E00019B6B5EEF07F02006D8A02106EA
:100E6A0020507C0FD96EDA6A18C003F019C004F05A
:100E7A00000E066E0A0E056E93EC0CF003C009F024
:100E8A0004C00AF039EC11F00950300FDF6E1C6A09
:100E9A001D06D8A01E0618C003F019C004F0000EE3
:100EAA00066E0A0E056E7AEC0BF003C018F004C049
:100EBA0019F021BE69EF07F0215008E12004D8A0FB
:100ECA0069EF07F06BEF07F090EF07F01850191071
:100EDA00D8A472EF07F074EF07F032EF07F01C5056
:100EEA00D8A47AEF07F07CEF07F032EF07F01EBEC6
:100EFA0087EF07F01E5008E11D04D8A087EF07F01E
:100F0A0089EF07F090EF07F048B28EEF07F090EF05
:100F1A0007F032EF07F01F50D8B496EF07F098EFBA
:100F2A0007F0A1EF07F02006D8A0210620507C0F79
:100F3A00D96EDA6A1FC0DFFF17C010F020507C0F8D
:100F4A00116E1DC012F01EC013F01FEC0EF012003D
:100F5A000CC014F00DC015F014501510D8A4B8EF39
:100F6A0007F0BAEF07F0C0EF07F0BC0E146E14508A
:100F7A00D8A4060E156E000E176E000E166EC8EF78
:100F8A0007F0164A172A165014240E6E1750152009
:100F9A000F6E0EC0F6FF0FC0F7FFF86A050EF76472
:100FAA0003D00800F55005D0F6CFE9FFF7CFEAFFE6
:100FBA00EF500009D8A4E4EF07F0E6EF07F0C6EF18
:100FCA0007F016C010F017C011F06CC012F06DC017
:100FDA0013F048B0F3EF07F0F5EF07F02CEF08F045
:100FEA0001EF08F0000E046E200E036E0BC005F030
:100FFA00EAEC0CF0164A172A1250165C1750800AAF
:10100A000E6E1350800A0E58D8A00EEF08F010EF9B
:10101A0008F0F7EF07F02CEF08F014C0F6FF15C040
:10102A00F7FFF86A050EF76403D00800F55005D0FB
:10103A00F6CFE9FFF7CFEAFFEF500E6E0E50036EC0
:10104A00046A0BC005F0EAEC0CF0144A152A1006E3
:10105A00D8A01106102806E11128D8A437EF08F005
:10106A0039EF08F012EF08F048A03EEF08F040EF21
:10107A0008F05BEF08F04CEF08F0000E046E200E4B
:10108A00036E0BC005F0EAEC0CF0164A172A125050
:10109A00165C1750800A0E6E1350800A0E58D8A09C
:1010AA0059EF08F05BEF08F042EF08F01200000E6B
:1010BA002BEC12F0076EA50E0718D8B467EF08F0EC
:1010CA0069EF08F0B0EF08F00650D96EDA6A160E2A
:1010DA00DF6E0650D96EDA6A010ED9261A0EDF6E55
:1010EA000650D96EDA6A020ED926060EDF6E06504F
:1010FA00D96EDA6A030ED9261E0EDF6E0650D96E35
:10110A00DA6A040ED926080EDF6E0650D96EDA6A3C
:10111A00050ED926DF6A0650D96EDA6A060ED92676
:10112A00070EDF6E0650D96EDA6A070ED926DF6A15
:10113A000650D96EDA6A080ED926010EDF6E0650FD
:10114A00D96EDA6A090ED926DF6A06C005F012ECF2
:10115A000BF008EF09F00650D96EDA6A010E2BEC93
:10116A0012F0DF6E0650D96EDA6A010ED926020E27
:10117A002BEC12F0DF6E0650D96EDA6A020ED9260F
:10118A00030E2BEC12F0DF6E0650D96EDA6A030EEC
:10119A00D926040E2BEC12F0DF6E0650D96EDA6AED
:1011AA00040ED926050E2BEC12F0DF6E0650D96E0E
:1011BA00DA6A050ED926060E2BEC12F0DF6E0650FF
:1011CA00D96EDA6A060ED926070E2BEC12F0DF6EFC
:1011DA000650D96EDA6A070ED926080E2BEC12F0E1
:1011EA00DF6E0650D96EDA6A080ED926090E2BEC84
:1011FA0012F0DF6E0650D96EDA6A090ED9260A0E87
:10120A002BEC12F0DF6E1200660ED36E0F013C6BF0
:10121A0096906CEC11F0ADEC11F07FEC10F039EC1B
:10122A0012F022EC12F09C0E066E5CEC08F0F28CC6
:10123A00F28E070E0E6E0B0E53EC11F064C003F023
:10124A0065C004F066C005F067C006F0640E076E5C
:10125A00000E086E000E096E000E0A6E64EC0EF0A7
:10126A000350041005100610D8A43EEF09F040EF11
:10127A0009F04CEF09F091EC0DF00FC070F010C0BE
:10128A0071F070C00FF071C010F02CEC0AF064C05D
:10129A0003F065C004F066C005F067C006F0F40EFE
:1012AA00076E010E086E000E096E000E0A6E64ECDF
:1012BA000EF00350041005100610D8A467EF09F0C9
:1012CA0069EF09F06DEF09F0A60E096EEEEC0FF06A
:1012DA009DEC09F0DBEC0BF06DEC03F064C003F05D
:1012EA0065C004F066C005F067C006F0320E076EEE
:1012FA00000E086E000E096E000E0A6E64EC0EF007
:10130A000350041005100610D8A48EEF09F090EFD0
:10131A0009F092EF09F0D7EC05F00D0E476EFC0EBE
:10132A00E82EFED7472EFCD723EF09F01FEF00F077
:10133A000001A8513C0DF3CF03F0F4CF04F0A751FC
:10134A0003240A6E000E04200B6E9E513C0DF3CF4F
:10135A0003F0F4CF04F09F510324066E000E04201C
:10136A00076EA0513C0DF3CF03F0F4CF04F0A15166
:10137A000324086E000E0420096E056A0850065CF4
:10138A0009500758D8B0CCEF09F0CEEF09F0E8EFD2
:10139A0009F006500A5C07500B58D8A0D7EF09F09D
:1013AA00D9EF09F000EF0AF008500A5C09500B580F
:1013BA00D8B0E2EF09F0E4EF09F000EF0AF0010E0D
:1013CA00056E00EF0AF006500A5C07500B58D8B0B9
:1013DA00F1EF09F0F3EF09F0E4EF09F008500A5CC5
:1013EA0009500B58D8B0FCEF09F0FEEF09F000EFF6
:1013FA000AF0E4EF09F00550D8B406EF0AF008EF56
:10140A000AF025EF0AF09C51705D000E7159D8B0B0
:10141A0011EF0AF013EF0AF017EF0AF0010E4B6E04
:10142A0026EF0AF09D51036E046A0350705D045062
:10143A007159D8A023EF0AF025EF0AF026EF0AF037
:10144A004B6A4BB002D08D9001D08D801200100EE5
:10145A000F5C270E1058D8A035EF0AF037EF0AF0C4
:10146A003BEF0AF0270E106E0F0E0F6E0FC003F03F
:10147A0010C004F0030E066EE80E056EA8EC0EF01E
:10148A000350010F116E11C0F6FF060EF76E080029
:10149A00F5CF60F0000E066E640E056E0FC003F005
:1014AA0010C004F0A8EC0EF003C00AF004C00BF060
:1014BA00000E0D6E0A0E0C6EBCEC0FF00A50010FF6
:1014CA00116E11C0F6FF060EF76E0800F5CF61F037
:1014DA00000E066E0A0E056E0FC003F010C004F06F
:1014EA00A8EC0EF003C00AF004C00BF0000E0D6E5B
:1014FA000A0E0C6EBCEC0FF00A50010F116E11C0EF
:10150A00F6FF060EF76E0800F5CF62F00FC00AF07C
:10151A0010C00BF0000E0D6E0A0E0C6EBCEC0FF034
:10152A000A50010F116E11C0F6FF060EF76E080081
:10153A00F5CF63F0120082B0A5EF0AF0A9EF0AF026
:10154A00076A072AAAEF0AF0076A0750036E046AB5
:10155A00AC0E056E89EC0FF00009D8B4B7EF0AF0AB
:10156A00B9EF0AF0BCEF0AF0010E11EF0BF082B2EC
:10157A00C1EF0AF0C5EF0AF0076A072AC6EF0AF0B8
:10158A00076A0750036E046AAB0E056E89EC0FF00A
:10159A000009D8B4D3EF0AF0D5EF0AF0D8EF0AF071
:1015AA00020E11EF0BF082B4DDEF0AF0E1EF0AF060
:1015BA00076A072AE2EF0AF0076A0750036E046A0D
:1015CA00AA0E056E89EC0FF00009D8B4EFEF0AF005
:1015DA00F1EF0AF0F4EF0AF0030E11EF0BF082BA02
:1015EA00F9EF0AF0FDEF0AF0076A072AFEEF0AF0A0
:1015FA00076A0750036E046AA90E056E89EC0FF09C
:10160A000009D8B40BEF0BF00DEF0BF010EF0BF055
:10161A00040E11EF0BF0000E1200A50E036E000E61
:10162A0082EC11F00550D96EDA6ADF50036E010EB2
:10163A0082EC11F00550D96EDA6A010ED926DF5014
:10164A00036E020E82EC11F00550D96EDA6A020EB0
:10165A00D926DF50036E030E82EC11F00550D96EC5
:10166A00DA6A030ED926DF50036E040E82EC11F0FB
:10167A000550D96EDA6A040ED926DF50036E050EBC
:10168A0082EC11F00550D96EDA6A050ED926DF50C0
:10169A00036E060E82EC11F00550D96EDA6A060E58
:1016AA00D926DF50036E070E82EC11F00550D96E71
:1016BA00DA6A070ED926DF50036E080E82EC11F0A3
:1016CA000550D96EDA6A080ED926DF50036E090E64
:1016DA0082EC11F00550D96EDA6A090ED926DF506C
:1016EA00036E0A0E82EC11F01200086A06BE82EF3F
:1016FA000BF080EF0BF088EF0BF0056C061ED8B0EC
:10170A00062A010E086E04BE8FEF0BF08DEF0BF068
:10171A0095EF0BF0036C041ED8B0042A010E081AC8
:10172A00000E0A6E000E096E05500610D8B4A0EF1E
:10173A000BF0A2EF0BF0CAEF0BF0010E076EAAEF47
:10174A000BF0D89005360636072A06AEAFEF0BF037
:10175A00B1EF0BF0A6EF0BF0D89009360A36055018
:10176A00035C06500458D8A0BDEF0BF0BFEF0BF096
:10177A00C4EF0BF00550035E0650045A0980D89056
:10178A0006320532072EB1EF0BF00850D8B4D0EF6D
:10179A000BF0D2EF0BF0D6EF0BF0096C0A1ED8B0A3
:1017AA000A2A09C003F00AC004F012000001A45179
:1017BA00D8A4E2EF0BF0E4EF0BF0E6EF0BF037EF13
:1017CA000CF0A251A819D8A4EDEF0BF0EFEF0BF033
:1017DA0002EF0CF0A351A719D8A4F6EF0BF0F8EF1B
:1017EA000BF002EF0CF0A651D8A4FEEF0BF000EFBD
:1017FA000CF002EF0CF0010E7B6F7B51D8B408EFAE
:10180A000CF00AEF0CF037EF0CF064C003F065C07F
:10181A0004F066C005F067C006F0C80E076E000E39
:10182A00086E000E096E000E0A6E64EC0EF0065089
:10183A000510041007E1640E035CD8B027EF0CF022
:10184A0029EF0CF02DEF0CF00001A55138EC0CF04B
:10185A00050E0001A66534EF0CF036EF0CF037EFF9
:10186A000CF07B6B1200036E0350D8A43FEF0CF010
:10187A0041EF0CF05EEF0CF0000E056E000E046EE8
:10188A008B8C850EE82EFED700008B9C850EE82EE9
:10189A00FED70000044A052A055009E1640E045CDB
:1018AA00D8A05AEF0CF05CEF0CF045EF0CF092EF79
:1018BA000CF0000E056E000E046E8B8CC80E00D064
:1018CA00E82EFDD78B9CC80E00D0E82EFDD7044A1F
:1018DA00052A055009E1320E045CD8A077EF0CF016
:1018EA0079EF0CF062EF0CF0000E056E000E046E3C
:1018FA008B8CC80EE82EFED78B9CC80EE82EFED71E
:10190A00044A052A055009E1320E045CD8A090EF7A
:10191A000CF092EF0CF07DEF0CF01200086A04BE96
:10192A009BEF0CF099EF0CF0A1EF0CF0036C041E86
:10193A00D8B0042A010E086E06BEA8EF0CF0A6EF76
:10194A000CF0ACEF0CF0056C061ED8B0062A055058
:10195A000610D8B4B3EF0CF0B5EF0CF0D9EF0CF0D9
:10196A00010E076EBDEF0CF0D89005360636072A31
:10197A0006AEC2EF0CF0C4EF0CF0B9EF0CF0055054
:10198A00035C06500458D8A0CDEF0CF0CFEF0CF052
:10199A00D3EF0CF00550035E0650045AD890063275
:1019AA000532072EC4EF0CF00850D8B4DFEF0CF064
:1019BA00E1EF0CF0E5EF0CF0036C041ED8B0042A3A
:1019CA0003C003F004C004F012000550D8B4F0EFCD
:1019DA000CF0F2EF0CF0FAEF0CF00550D8A4F8EF87
:1019EA000CF0FAEF0CF0FFEF0CF003503CEC12F0A5
:1019FA003EEF0DF00550D96EDA6A090ED926DE508F
:101A0A00DE10D8B40BEF0DF00DEF0DF026EF0DF050
:101A1A000550D96EDA6A090ED9260550E16EE26AD6
:101A2A00020EE126DE50E65CE650800A0A6EDE50BF
:101A3A00800A0A58D8B024EF0DF026EF0DF03EEFD9
:101A4A000DF00550D96EDA6A020ED926DF50066EFD
:101A5A000550D96EDA6ADF500624D96EDA6A03C0F5
:101A6A00DFFF0550D96EDA6A020ED926DE2A000E89
:101A7A00DD221200000E096E000E086E0350D96EA8
:101A8A00DA6ADFCFF6FF060EF76E0800F5502A0A6B
:101A9A00D8A452EF0DF054EF0DF079EF0DF003508A
:101AAA00D96EDA6ADF2A0450D96EDA6A020EDF26A4
:101ABA00DF5CD96EDA6ADECF08F0DECF09F08CEF90
:101ACA000DF00A0E0802F3CF05F0F4CF06F0090272
:101ADA00F350062607500524086E000E0620096EEC
:101AEA000350D96EDA6ADF2A0350D96EDA6ADFCF79
:101AFA00F6FF060EF76E0800F550D00F076E090EB6
:101B0A0007648AEF0DF08CEF0DF066EF0DF008C058
:101B1A0003F009C004F01200C282030E116E980E7F
:101B2A00E82EFED7112EFCD7C2B29EEF0DF0A0EF21
:101B3A000DF099EF0DF0C450126E116AC3501124C2
:101B4A00196E000E12201A6E19C003F01AC004F0A2
:101B5A00056A066AF40E076E010E086E000E096E1B
:101B6A00000E0A6E54EC0FF003C015F004C016F014
:101B7A0005C017F006C018F015C011F016C012F013
:101B8A0017C013F018C014F00B0ED1EF0DF0D89057
:101B9A001432133212321132E82ECCEF0DF011C08A
:101BAA000FF012C010F01200056E066A9488000E3B
:101BBA00086E000E076E948600D000D082A8E8EF67
:101BCA000DF0EAEF0DF0F9EF0DF007500708036E7C
:101BDA00010E046E032AF4EF0DF0D8900436032E9A
:101BEA00F2EF0DF004500612949600D000D0074A86
:101BFA00082A08BE0AEF0EF0085009E1080E075C31
:101C0A00D8A00AEF0EF00CEF0EF0E0EF0DF0055041
:101C1A00D8B412EF0EF014EF0EF018EF0EF09498FD
:101C2A008B9819EF0EF09488948600D000D0949681
:101C3A000650120048A024EF0EF026EF0EF02CEF0B
:101C4A000EF011C00BF010C00CF0CBEC10F013BE6C
:101C5A0033EF0EF031EF0EF037EF0EF0000E136E89
:101C6A00000E126E000E166E000E156E47EF0EF085
:101C7A00000E046E200E036E10C005F0EAEC0CF0A4
:101C8A00154A162A1250155C1650800A146E135003
:101C9A00800A1458D8A054EF0EF056EF0EF03DEF1C
:101CAA000EF048B05BEF0EF05DEF0EF063EF0EF052
:101CBA0011C00BF010C00CF0CBEC10F01200075062
:101CCA00081009100A10D8B46DEF0EF06FEF0EF07D
:101CDA009FEF0EF0010E0B6E79EF0EF0D8900736DB
:101CEA00083609360A360B2A0AAE7EEF0EF080EF66
:101CFA000EF073EF0EF00750035C085004580950B9
:101D0A0005580A500658D8A08DEF0EF08FEF0EF046
:101D1A0097EF0EF00750035E0850045A0950055A0F
:101D2A000A50065AD8900A320932083207320B2E64
:101D3A0080EF0EF003C003F004C004F005C005F004
:101D4A0006C006F01200000E086E000E076E05505F
:101D5A000610D8B4B3EF0EF0B5EF0EF0DDEF0EF0CB
:101D6A00010E096EBDEF0EF0D89005360636092A27
:101D7A0006AEC2EF0EF0C4EF0EF0B9EF0EF0D89037
:101D8A00073608360550035C06500458D8A0D0EF31
:101D9A000EF0D2EF0EF0D7EF0EF00550035E0650AC
:101DAA00045A0780D89006320532092EC4EF0EF085
:101DBA0007C003F008C004F01200046E04C003F068
:101DCA00010E03168A500318FE0B03188A6E04C00C
:101DDA0003F0D8900332010E031603468A50031803
:101DEA00FD0B03188A6E04C003F0D8900332D89012
:101DFA000332010E0316034603468A500318FB0BEF
:101E0A0003188A6E04C003F0D8900332D8900332C4
:101E1A00D8900332010E03160346034603468A503E
:101E2A000318F70B03188A6E17EC12F01200F00E63
:101E3A00891649506308D96EDA6ADF508C6E32EF20
:101E4A000FF0898045EF0FF0898245EF0FF0898402
:101E5A0045EF0FF0898645EF0FF04950000AD8B4D4
:101E6A0026EF0FF0010AD8B429EF0FF0030AD8B40D
:101E7A002CEF0FF0010AD8B42FEF0FF045EF0FF057
:101E8A00492A030E49644CEF0FF04EEF0FF04FEF63
:101E9A000FF0496AD768060ED66EF2941200000E49
:101EAA000B6E000E0C6E000E0D6E000E0E6E03A071
:101EBA0061EF0FF063EF0FF06BEF0FF007500B2697
:101ECA0008500C2209500D220A500E22D8900736CB
:101EDA00083609360A36D8900632053204320332F9
:101EEA000350041005100610D8A47EEF0FF080EFFF
:101EFA000FF05CEF0FF00BC003F00CC004F00DC044
:101F0A0005F00EC006F0120003500410D8B490EF8A
:101F1A000FF092EF0FF0B6EF0FF00550D96EDA6AB4
:101F2A00DF50D8A49BEF0FF09DEF0FF0BAEF0FF040
:101F3A001A0E066EF80EE82EFED7062EFCD700D033
:101F4A0003500410D8B4ACEF0FF0AEEF0FF0BAEFB5
:101F5A000FF00550D96EDA6A010EDF6E010EBBEF83
:101F6A000FF00550D96EDA6ADF6A000E12000C50C3
:101F7A000D10D8B4C3EF0FF0C5EF0FF0E9EF0FF073
:101F8A00010E0E6ECDEF0FF0D8900C360D360E2ADC
:101F9A000DAED2EF0FF0D4EF0FF0C9EF0FF00C50E7
:101FAA000A5C0D500B58D8A0DDEF0FF0DFEF0FF0F1
:101FBA00E3EF0FF00C500A5E0D500B5AD8900D3219
:101FCA000C320E2ED4EF0FF00AC00AF00BC00BF041
:101FDA001200F3EC11F0D00E1FEC10F0000E1FEC03
:101FEA0010F0C0EC11F0F3EC11F0D10E1FEC10F070
:101FFA000950D96EDA6A010ED9EC0DF00CEC12F028
:10200A00DF6E0950D96EDA6A010ED926010ED9ECB3
:10201A000DF00CEC12F0DF6E0950D96EDA6A020E7E
:10202A00D926000ED9EC0DF00CEC12F0DF6EC0ECE4
:10203A0011F01200036E000E056E000E046E03AE60
:10204A0029EF10F02BEF10F02EEF10F0948830EFFC
:10205A0010F094988B9800D000D0948600D000D0CD
:10206A009496D8900336044A052A05BE46EF10F026
:10207A00055009E1080E045CD8A046EF10F048EFBD
:10208A0010F024EF10F0948800D000D0948600D08D
:10209A0000D09496120066EF10F006C0F6FF07C053
:1020AA00F7FFF86A050EF76403D00800F55005D06B
:1020BA00F6CFE9FFF7CFEAFFEF50E5EC11F0064A59
:1020CA00072A06C0F6FF07C0F7FFF86A050EF7648D
:1020DA0003D00800F55005D0F6CFE9FFF7CFEAFFA5
:1020EA00EF500009D8A47CEF10F07EEF10F052EF09
:1020FA0010F01200936A8A988A9A340E086EF20EC9
:10210A00E82EFED7082EFCD7030EE2EC0EF00D0ED9
:10211A00086EFC0EE82EFED7082EFCD7030EE2EC62
:10212A000EF0640EE82EFED7030EE2EC0EF0020E5D
:10213A00E2EC0EF0280ED3EC11F00C0ED3EC11F0F9
:10214A00060ED3EC11F000EC12F012002EC030F0A3
:10215A00B8EF10F02DC022F0300E236E2FC024F0FD
:10216A00256AB1EC04F030C0F6FF060EF76E0800DF
:10217A00F5500009D8A4C4EF10F0C6EF10F0AFEF85
:10218A0010F0000E2E6E000E2D6E1200000E0F6E55
:10219A00000E0E6EDAEF10F00DC003F0046A0CC0E8
:1021AA0005F0EAEC0CF00E4A0F2A0B500E24D96EF9
:1021BA00DA6ADF500D6E0D50D8A4E6EF10F0E8EFA2
:1021CA0010F0D1EF10F012000D6E0DC003F0046A8A
:1021DA00000E066E0A0E056E93EC0CF003C00BF0AF
:1021EA0004C00CF00DC003F0046A000E066E0A0E5D
:1021FA00056E7AEC0BF00350100DF3500B2412000D
:10220A007A0EF66E240EF76E000EF86E0900F5CF00
:10221A00C0F000EE60F04D0EEE6AE806FDE14B6A92
:10222A004A6A496A486A4C904C92000EF86E00015C
:10223A0009EF09F0330E396E31C03AF0000E3D6EE7
:10224A00000E3C6E000E446E000E436E3A0E2D6E6A
:10225A0032C02EF0390E2F6EABEC10F031503C2408
:10226A00D96EDA6ADF6A12000ABE3EEF11F040EF59
:10227A0011F046EF11F009C009F00AC00AF052EF56
:10228A0011F009C00BF00AC00CF00B1E0C1E0B4A11
:10229A000C2A0BC009F00CC00AF012000F6EF3EC06
:1022AA0011F0D00E1FEC10F0000E1FEC10F0000E13
:1022BA001FEC10F00E50E9EC10F01FEC10F00F506C
:1022CA00E9EC10F01FEC10F0C0EC11F012000F0155
:1022DA003C953C833C91C250830B1809C26EF30EA5
:1022EA00C116FC0EC116C050C70B2009C06EC050E3
:1022FA00F80B0209C06EC2801200046E04C0A9FF66
:10230A0003C0A8FFA69EA69CA684550EA76EAA0E79
:10231A00A76EA682A6B294EF11F096EF11F08FEF96
:10232A0011F0A6941200086E0804D8A49FEF11F0C9
:10233A00A1EF11F0A6EF11F00750800F096EA9EF77
:10234A0011F00750C00F096E0950D3EC11F01200BA
:10235A00956AF00E9216F00E89168C6AD59CD59A5B
:10236A00D596D550F80B0309D56ED768060ED66EEA
:10237A00F28AD58E120094968B9694988B98030EB7
:10238A00E82EFED700009486030EE82EFED7000042
:10239A009488030EE82EFED700001200066E8A9873
:1023AA0006380F0BE2EC0EF00650E2EC0EF0060EC9
:1023BA00056E300EE82EFED7052EFCD700D012008F
:1023CA00056E8A8805380F0BE2EC0EF00550E2EC38
:1023DA000EF0210EE82EFED70000120094988B987A
:1023EA00030EE82EFED7000094968B96030EE82E75
:1023FA00FED700001200010ED3EC11F0060E076E94
:10240A00300EE82EFED7072EFCD700D01200046E3D
:10241A0004C003F00F0E031604380F0B0A0DF35015
:10242A00032412008A8A210EE82EFED700008A9A17
:10243A00210EE82EFED70000120094809482948424
:10244A00948A0F013A6B949C8B9C1200036E03C012
:10245A00A9FFA69EA69CA680A850120094869488DE
:10246A000F013A973A99120033EC12F01200120057
:01247A00FF62
:020000040030CA
:0E000000FF281F3CFFBF85FF0FC00FE00F4021
:00000001FF
