:040000001EEF00F0FF
:100008004C82D9CF01F0DACF02F0F2A40EEF00F063
:1000180010EF00F018EF00F075EC0FF0010E472616
:10002800000E482249224A2202C0DAFF01C0D9FF45
:080038004C921100F1EF10F0F1
:10060000003F065B4F666D7D077F6F54696D653AED
:1006100020253032643A253032643A253032642065
:100620002000253032643A253032642020202020FA
:1006300020202020202000543A2530326420483ADF
:10064000257320413A257320005365742054656D4D
:1006500070204C4F573A2020200053657420546579
:100660006D7020484947483A202000486561742051
:10067000456E642054696D653A20200053617665AB
:100680002053657474696E67733F20200055503D98
:1006900059657320444F574E3D4E6F2020004865EA
:1006A00061742053746172742054696D653A002539
:1006B000642043202020202020202000286E756CFC
:1006C0006C2900536176656421004F4E20004F462F
:0906D00046002D2D004F4E0000E4
:1006DA009EEC0AF00D6E0D50D8A476EF03F078EF79
:1006EA0003F07AEF03F0B0EF04F000017C51D8B4C4
:1006FA0081EF03F083EF03F08BEF04F07C6BB0EF34
:10070A0004F0030E0D18D8A48DEF03F08FEF03F059
:10071A00B0EF04F0010EC36FB0EF04F00D04D8A4DB
:10072A0099EF03F09BEF03F09CEF03F09E2B020E70
:10073A000D18D8A4A3EF03F0A5EF03F0A6EF03F07A
:10074A009E07030E0D18D8A4ADEF03F0AFEF03F028
:10075A00B0EF04F0020EC36FB0EF04F00D04D8A49A
:10076A00B9EF03F0BBEF03F0BCEF03F09F2B020ECF
:10077A000D18D8A4C3EF03F0C5EF03F0C6EF03F0DA
:10078A009F07030E0D18D8A4CDEF03F0CFEF03F0A7
:10079A00D1EF03F0030EC36F040E0D18D8A4D8EFDF
:1007AA0003F0DAEF03F0B0EF04F08FEF03F00D047B
:1007BA00D8A4E2EF03F0E4EF03F0E5EF03F0A02B97
:1007CA00020E0D18D8A4ECEF03F0EEEF03F0F0EFF1
:1007DA0003F00F0EA1273B0EA165F6EF03F0F8EF29
:1007EA0003F0F9EF03F0A16B170EA065FFEF03F01A
:1007FA0001EF04F002EF04F0A06B030E0D18D8A469
:10080A0009EF04F00BEF04F00DEF04F0040EC36FD0
:10081A00040E0D18D8A414EF04F016EF04F0B0EF8C
:10082A0004F0AFEF03F0020E0D18D8A41FEF04F086
:10083A0021EF04F022EF04F0A22B0D04D8A428EF34
:10084A0004F02AEF04F02CEF04F00F0EA3273B0E5E
:10085A00A36532EF04F034EF04F035EF04F0A36B34
:10086A00170EA2653BEF04F03DEF04F03EEF04F0F3
:10087A00A26B030E0D18D8A445EF04F047EF04F05D
:10088A0049EF04F0070EC36F040E0D18D8A450EFF9
:10089A0004F052EF04F0B0EF04F0030EC36FB0EFB0
:1008AA0004F00D04D8A45CEF04F05EEF04F07FEFCF
:1008BA0004F09E0E056E10EC0BF02AEC12F0000EFE
:1008CA00076E010EC2EC11F0C30E066E0650D8A4D4
:1008DA00060E076E76EC10F00B0E0C6E260E0B6EE3
:1008EA005E0EE82EFED70B2EFCD70C2EFAD700018F
:1008FA00C36BC269020E0D18D8A486EF04F088EF04
:10090A0004F0B0EF04F0C36BB0EF04F0C3510B6E08
:10091A000C6A0C50000AD8B495EF04F0B0EF04F05A
:10092A000B50000AD8B486EF03F0010AD8B493EF4B
:10093A0003F0030AD8B4B3EF03F0010AD8B4DCEF2A
:10094A0003F0070AD8B418EF04F0030AD8B456EF34
:10095A0004F0B0EF04F012002350D96EDA6ADFCF48
:10096A00F6FF060EF76E0800F550250AD8A4C0EF68
:10097A0004F0C2EF04F0C6EF05F02350D96EDA6A2C
:10098A00DF2A000E00016D6F000E6C6F6CC07AF0EA
:10099A006E696F692C6AEDEF04F000017A832350C7
:1009AA00D96EDA6ADF2AEDEF04F0010E2C6EEDEF54
:1009BA0004F02350D96EDA6ADFCFF6FF060EF76E1F
:1009CA000800F550300AD8B4D2EF04F0DAEF04F098
:1009DA002C50D8B4F3EF04F0F5EF04F0DEEF04F096
:1009EA0023C003F024C004F03DEC0DF003C06CF00A
:1009FA0004C06DF000016DBF07EF05F005EF05F0CB
:100A0A000CEF05F07A816C6D6D1FD8B06D2B2350F9
:100A1A00D96EDA6ADF502B6E2BC0F6FF060EF76E20
:100A2A000800F550640AD8B41DEF05F01FEF05F071
:100A3A002DEF05F02BC0F6FF060EF76E0800F550F5
:100A4A00690AD8A42BEF05F02DEF05F049EF05F060
:100A5A0024C0D9FF25C0DAFF020EDF26DF5CD96E7B
:100A6A00DA6ADECF27F0DECF28F02350D96EDA6AB1
:100A7A002B28DF6E22C017F027C018F028C019F003
:100A8A00FDEC06F0D7EF05F02C6A2350D96EDA6A2E
:100A9A00DFCFF6FF060EF76E0800F550730AD8A4EA
:100AAA0059EF05F05BEF05F063EF05F02350D96EBF
:100ABA00DA6ADF2A010E2C6EA5EF05F02350D96EF3
:100ACA00DA6ADFCFF6FF060EF76E0800F5506C0AF9
:100ADA00D8A472EF05F074EF05F0A5EF05F02350E6
:100AEA00D96EDA6ADF50266E010E262626C0F6FF78
:100AFA00060EF76E0800F5506C0AD8A487EF05F0C9
:100B0A0089EF05F0A5EF05F02350D96EDA6ADF50B8
:100B1A00266E020E262626C0F6FF060EF76E08007F
:100B2A00F550730AD8A49CEF05F09EEF05F0A5EFE7
:100B3A0005F02350D96EDA6A030EDF265FEF05F05F
:100B4A002C50D8B4ABEF05F0ADEF05F0C0EF05F0CF
:100B5A0022C00BF024C0D9FF25C0DAFF020EDF261F
:100B6A00DF5CD96EDA6ADECF0CF0DECF0DF0B0ECC6
:100B7A0007F0D7EF05F02350D96EDA6ADF2AD7EFEC
:100B8A0005F02350D96EDA6ADFCFF6FF060EF76E4C
:100B9A000800F550036E046A22C005F0E8EC0CF078
:100BAA00C0EF05F012000001C251C319D8B4E0EF3A
:100BBA0005F0E2EF05F0D6EF06F02AEC12F0C3C01A
:100BCA00C2F0D6EF06F0AF0E316E0B0E326EAAC02F
:100BDA0033F0346AA9C035F0366AA8C037F0386AEB
:100BEA0049EC11F0000E076E010EC2EC11F0AF0EC7
:100BFA00066E076A76EC10F00001A651D8A408EF39
:100C0A0006F00AEF06F00EEF06F0D20EC06F10EFF4
:100C1A0006F0D50EC06F7D51D8A416EF06F018EF76
:100C2A0006F01CEF06F0CE0EC16F1EEF06F0CA0EDC
:100C3A00C16FAF0E316E370E326E70C033F071C0B5
:100C4A0034F0C1C035F03550D8A4060E366EC0C097
:100C5A0037F03750D8A4060E386E49EC11F0000E62
:100C6A00076E020EC2EC11F0AF0E066E076A76EC42
:100C7A0010F0FCEF06F0000E076E010EC2EC11F048
:100C8A00490E066E0650D8A4060E076E76EC10F0D2
:100C9A00AF0E316EAF0E326E9EC033F0346A49EC3D
:100CAA0011F0000E076E020EC2EC11F039EF06F0D9
:100CBA00000E076E010EC2EC11F05A0E066E0650B7
:100CCA00D8A4060E076E76EC10F0AF0E316EAF0E9A
:100CDA00326E9FC033F0346A49EC11F0000E076E91
:100CEA00020EC2EC11F039EF06F0000E076E010E8B
:100CFA00C2EC11F09E0E066E0650D8A4060E076EC0
:100D0A0076EC10F0AF0E316E220E326EA0C033F0C8
:100D1A00346AA1C035F0366A49EC11F0000E076E4C
:100D2A00020EC2EC11F039EF06F0000E076E010E4A
:100D3A00C2EC11F06B0E066E0650D8A4060E076EB2
:100D4A0076EC10F0AF0E316E220E326EA2C033F086
:100D5A00346AA3C035F0366A49EC11F0000E076E0A
:100D6A00020EC2EC11F039EF06F0000E076E010E0A
:100D7A00C2EC11F07C0E066E0650D8A4060E076E61
:100D8A0076EC10F0000E076E020EC2EC11F08D0E1A
:100D9A00066E0650D8A4060E076E76EC10F0FCEF2D
:100DAA0006F00001C351456E466A4650000AD8B49F
:100DBA00E1EF06F0FCEF06F04550000AD8B4E8EF80
:100DCA0005F0010AD8B440EF06F0030AD8B45DEF83
:100DDA0006F0010AD8B47AEF06F0070AD8B49AEFF7
:100DEA0006F0030AD8B4BAEF06F0FCEF06F01200D8
:100DFA00010E1C6E19BE04EF07F007EF07F0010E93
:100E0A0008EF07F0000E1F6E6CC01DF06DC01EF0DB
:100E1A001F50D8B413EF07F015EF07F02CEF07F0C7
:100E2A001D06D8A01E061F50D8A41EEF07F020EFFB
:100E3A0007F026EF07F0000E1B6E2B0E1A6E2AEF34
:100E4A0007F0000E1B6E2D0E1A6E1AC01FF0000E50
:100E5A00216E1F0E206E00019D6B60EF07F02006C9
:100E6A00D8A0210620507E0FD96EDA6A18C003F086
:100E7A0019C004F0000E066E0A0E056E91EC0CF015
:100E8A0003C009F004C00AF063EC11F00950300FF6
:100E9A00DF6E1C6A1D06D8A01E0618C003F019C012
:100EAA0004F0000E066E0A0E056E78EC0BF003C015
:100EBA0018F004C019F021BE6BEF07F0215008E1C9
:100ECA002004D8A06BEF07F06DEF07F093EF07F05F
:100EDA0018501910D8A474EF07F076EF07F034EF22
:100EEA0007F01C50D8A47CEF07F07EEF07F034EF30
:100EFA0007F01EBE89EF07F01E5008E11D04D8A0B6
:100F0A0089EF07F08BEF07F093EF07F000017AB350
:100F1A0091EF07F093EF07F034EF07F01F50D8B4C2
:100F2A0099EF07F09BEF07F0A4EF07F02006D8A08F
:100F3A00210620507E0FD96EDA6A1FC0DFFF17C064
:100F4A0010F020507E0F116E1DC012F01EC013F05B
:100F5A0028EC0EF012000CC014F00DC015F014505D
:100F6A001510D8A4BBEF07F0BDEF07F0C3EF07F0E9
:100F7A00BC0E146E1450D8A4060E156E000E176E11
:100F8A00000E166ECBEF07F0164A172A16501424D5
:100F9A000E6E175015200F6E0EC0F6FF0FC0F7FF2A
:100FAA00F86A050EF76403D00800F55005D0F6CFAD
:100FBA00E9FFF7CFEAFFEF500009D8A4E7EF07F0FF
:100FCA00E9EF07F0C9EF07F016C010F017C011F0EB
:100FDA006CC012F06DC013F000017AB1F7EF07F0A0
:100FEA00F9EF07F030EF08F005EF08F0000E046E95
:100FFA00200E036E0BC005F0E8EC0CF0164A172A17
:10100A001250165C1750800A0E6E1350800A0E5842
:10101A00D8A012EF08F014EF08F0FBEF07F030EF5A
:10102A0008F014C0F6FF15C0F7FFF86A050EF7645A
:10103A0003D00800F55005D0F6CFE9FFF7CFEAFF55
:10104A00EF500E6E0E50036E046A0BC005F0E8EC0A
:10105A000CF0144A152A1006D8A01106102806E129
:10106A001128D8A43BEF08F03DEF08F016EF08F07E
:10107A0000017AA143EF08F045EF08F060EF08F0AD
:10108A0051EF08F0000E046E200E036E0BC005F03F
:10109A00E8EC0CF0164A172A1250165C1750800A10
:1010AA000E6E1350800A0E58D8A05EEF08F060EF5B
:1010BA0008F047EF08F01200000E4AEC12F0076E33
:1010CA00A50E0718D8B46CEF08F06EEF08F0B5EF6C
:1010DA0008F00650D96EDA6A160EDF6E0650D96E1F
:1010EA00DA6A010ED9261A0EDF6E0650D96EDA6A4E
:1010FA00020ED926060EDF6E0650D96EDA6A030E84
:10110A00D9261E0EDF6E0650D96EDA6A040ED9266B
:10111A00080EDF6E0650D96EDA6A050ED926DF6A26
:10112A000650D96EDA6A060ED926070EDF6E065009
:10113A00D96EDA6A070ED926DF6A0650D96EDA6ADC
:10114A00080ED926010EDF6E0650D96EDA6A090E2C
:10115A00D926DF6A06C005F010EC0BF00DEF09F096
:10116A000650D96EDA6A010E4AEC12F0DF6E0650AA
:10117A00D96EDA6A010ED926020E4AEC12F0DF6E37
:10118A000650D96EDA6A020ED926030E4AEC12F01C
:10119A00DF6E0650D96EDA6A030ED926040E4AECBF
:1011AA0012F0DF6E0650D96EDA6A040ED926050EE1
:1011BA004AEC12F0DF6E0650D96EDA6A050ED926AD
:1011CA00060E4AEC12F0DF6E0650D96EDA6A060E87
:1011DA00D926070E4AEC12F0DF6E0650D96EDA6A8B
:1011EA00070ED926080E4AEC12F0DF6E0650D96EA9
:1011FA00DA6A080ED926090E4AEC12F0DF6E06509A
:10120A00D96EDA6A090ED9260A0E4AEC12F0DF6E96
:10121A0012000001AA513C0DF3CF03F0F4CF04F001
:10122A00A95103240A6E000E04200B6EA0513C0D36
:10123A00F3CF03F0F4CF04F0A1510324066E000E9D
:10124A000420076EA2513C0DF3CF03F0F4CF04F053
:10125A00A3510324086E000E0420096E056A085083
:10126A00065C09500758D8B03DEF09F03FEF09F086
:10127A0059EF09F006500A5C07500B58D8A048EFFE
:10128A0009F04AEF09F071EF09F008500A5C0950B9
:10129A000B58D8B053EF09F055EF09F071EF09F088
:1012AA00010E056E71EF09F006500A5C07500B58E3
:1012BA00D8B062EF09F064EF09F055EF09F0085071
:1012CA000A5C09500B58D8B06DEF09F06FEF09F0BE
:1012DA0071EF09F055EF09F00550D8B477EF09F02E
:1012EA0079EF09F096EF09F09E51705D000E715981
:1012FA00D8B082EF09F084EF09F088EF09F0010E07
:10130A007D6F97EF09F09F51036E046A0350705D79
:10131A0004507159D8A094EF09F096EF09F097EFAD
:10132A0009F07D6B7DB102D08D9001D08D801200C5
:10133A00660ED36E0F013C6B969096EC11F0D7ECCB
:10134A0011F0A5EC10F058EC12F041EC12F09E0EE0
:10135A00066E61EC08F0F28CF28E070E0E6E0B0E22
:10136A007DEC11F047C003F048C004F049C005F015
:10137A004AC006F0640E076E000E086E000E096E73
:10138A00000E0A6EB5EC0EF003500410051006109C
:10139A00D8A4D2EF09F0D4EF09F0E0EF09F0E0ECBD
:1013AA000DF00FC070F010C071F070C00FF071C076
:1013BA0010F02AEC0AF047C003F048C004F049C014
:1013CA0005F04AC006F0F40E076E010E086E000E14
:1013DA00096E000E0A6EB5EC0EF0035004100510EB
:1013EA000610D8A4FBEF09F0FDEF09F001EF0AF0AF
:1013FA00A80E096E14EC10F00EEC09F0D9EC0BF003
:10140A006DEC03F047C003F048C004F049C005F092
:10141A004AC006F0320E076E000E086E000E096E04
:10142A00000E0A6EB5EC0EF00350041005100610FB
:10143A00D8A422EF0AF024EF0AF0B7EF09F0D8ECAB
:10144A0005F0B7EF09F01EEF00F0100E0F5C270E43
:10145A001058D8A033EF0AF035EF0AF039EF0AF046
:10146A00270E106E0F0E0F6E0FC003F010C004F09F
:10147A00030E066EE80E056E3BEC0FF00350010FEB
:10148A00116E11C0F6FF060EF76E0800F5CF60F078
:10149A00000E066E640E056E0FC003F010C004F055
:1014AA003BEC0FF003C00AF004C00BF0000E0D6E07
:1014BA000A0E0C6EE2EC0FF00A50010F116E11C009
:1014CA00F6FF060EF76E0800F5CF61F0000E066E05
:1014DA000A0E056E0FC003F010C004F03BEC0FF0CB
:1014EA0003C00AF004C00BF0000E0D6E0A0E0C6E5B
:1014FA00E2EC0FF00A50010F116E11C0F6FF060E52
:10150A00F76E0800F5CF62F00FC00AF010C00BF0BA
:10151A00000E0D6E0A0E0C6EE2EC0FF00A50010F6F
:10152A00116E11C0F6FF060EF76E0800F5CF63F0D4
:10153A00120082B0A3EF0AF0A7EF0AF00A6A0A2A99
:10154A00A8EF0AF00A6A0A50036E046AAE0E056E24
:10155A008FEC0DF00009D8B4B5EF0AF0B7EF0AF036
:10156A00BAEF0AF0010E0FEF0BF082B2BFEF0AF0EA
:10157A00C3EF0AF00A6A0A2AC4EF0AF00A6A0A5092
:10158A00036E046AAD0E056E8FEC0DF00009D8B437
:10159A00D1EF0AF0D3EF0AF0D6EF0AF0020E0FEFFE
:1015AA000BF082B4DBEF0AF0DFEF0AF00A6A0A2ACC
:1015BA00E0EF0AF00A6A0A50036E046AAC0E056E7E
:1015CA008FEC0DF00009D8B4EDEF0AF0EFEF0AF056
:1015DA00F2EF0AF0030E0FEF0BF082BAF7EF0AF000
:1015EA00FBEF0AF00A6A0A2AFCEF0AF00A6A0A50B2
:1015FA00036E046AAB0E056E8FEC0DF00009D8B4C9
:10160A0009EF0BF00BEF0BF00EEF0BF0040E0FEFE0
:10161A000BF0000E1200A50E036E000EACEC11F0DA
:10162A000550D96EDA6ADF50036E010EACEC11F088
:10163A000550D96EDA6A010ED926DF50036E020E02
:10164A00ACEC11F00550D96EDA6A020ED926DF50D9
:10165A00036E030EACEC11F00550D96EDA6A030E74
:10166A00D926DF50036E040EACEC11F00550D96E8A
:10167A00DA6A040ED926DF50036E050EACEC11F0BF
:10168A000550D96EDA6A050ED926DF50036E060EAA
:10169A00ACEC11F00550D96EDA6A060ED926DF5085
:1016AA00036E070EACEC11F00550D96EDA6A070E1C
:1016BA00D926DF50036E080EACEC11F00550D96E36
:1016CA00DA6A080ED926DF50036E090EACEC11F067
:1016DA000550D96EDA6A090ED926DF50036E0A0E52
:1016EA00ACEC11F01200086A06BE80EF0BF07EEF38
:1016FA000BF086EF0BF0056C061ED8B0062A010E19
:10170A00086E04BE8DEF0BF08BEF0BF093EF0BF02E
:10171A00036C041ED8B0042A010E081A000E0A6EC1
:10172A00000E096E05500610D8B49EEF0BF0A0EF1C
:10173A000BF0C8EF0BF0010E076EA8EF0BF0D89074
:10174A0005360636072A06AEADEF0BF0AFEF0BF003
:10175A00A4EF0BF0D89009360A360550035C065000
:10176A000458D8A0BBEF0BF0BDEF0BF0C2EF0BF0A3
:10177A000550035E0650045A0980D8900632053295
:10178A00072EAFEF0BF00850D8B4CEEF0BF0D0EF26
:10179A000BF0D4EF0BF0096C0A1ED8B00A2A09C064
:1017AA0003F00AC004F012000001A651D8A4E0EF29
:1017BA000BF0E2EF0BF0E4EF0BF035EF0CF0A45175
:1017CA00AA19D8A4EBEF0BF0EDEF0BF000EF0CF039
:1017DA00A551A919D8A4F4EF0BF0F6EF0BF000EF1E
:1017EA000CF0A851D8A4FCEF0BF0FEEF0BF000EFC1
:1017FA000CF0010E7C6F7C51D8B406EF0CF008EFA8
:10180A000CF035EF0CF047C003F048C004F049C0B3
:10181A0005F04AC006F0C80E076E000E086E000EEC
:10182A00096E000E0A6EB5EC0EF006500510041093
:10183A0007E1640E035CD8B025EF0CF027EF0CF03B
:10184A002BEF0CF00001A75136EC0CF0050E00014D
:10185A00A86532EF0CF034EF0CF035EF0CF07C6B2E
:10186A001200036E0350D8A43DEF0CF03FEF0CF0CA
:10187A005CEF0CF0000E056E000E046E8B8C850E6C
:10188A00E82EFED700008B9C850EE82EFED70000BE
:10189A00044A052A055009E1640E045CD8A058EFF1
:1018AA000CF05AEF0CF043EF0CF090EF0CF0000E36
:1018BA00056E000E046E8B8CC80E00D0E82EFDD784
:1018CA008B9CC80E00D0E82EFDD7044A052A055085
:1018DA0009E1320E045CD8A075EF0CF077EF0CF03A
:1018EA0060EF0CF0000E056E000E046E8B8CC80EB5
:1018FA00E82EFED78B9CC80EE82EFED7044A052A8E
:10190A00055009E1320E045CD8A08EEF0CF090EF7E
:10191A000CF07BEF0CF01200086A04BE99EF0CF091
:10192A0097EF0CF09FEF0CF0036C041ED8B0042A5A
:10193A00010E086E06BEA6EF0CF0A4EF0CF0AAEF9B
:10194A000CF0056C061ED8B0062A05500610D8B44D
:10195A00B1EF0CF0B3EF0CF0D7EF0CF0010E076EFD
:10196A00BBEF0CF0D89005360636072A06AEC0EF54
:10197A000CF0C2EF0CF0B7EF0CF00550035C065008
:10198A000458D8A0CBEF0CF0CDEF0CF0D1EF0CF04F
:10199A000550035E0650045AD89006320532072EC7
:1019AA00C2EF0CF00850D8B4DDEF0CF0DFEF0CF00A
:1019BA00E3EF0CF0036C041ED8B0042A03C003F052
:1019CA0004C004F012000550D8B4EEEF0CF0F0EFAA
:1019DA000CF0F8EF0CF00550D8A4F6EF0CF0F8EF85
:1019EA000CF0FDEF0CF003505CEC12F03CEF0DF044
:1019FA000550D96EDA6A090ED926DE50DE10D8B43F
:101A0A0009EF0DF00BEF0DF024EF0DF00550D96E34
:101A1A00DA6A090ED9260550E16EE26A020EE1265B
:101A2A00DE50E65CE650800A0A6EDE50800A0A58EA
:101A3A00D8B022EF0DF024EF0DF03CEF0DF0055079
:101A4A00D96EDA6A020ED926DF50066E0550D96EB3
:101A5A00DA6ADF500624D96EDA6A03C0DFFF05505E
:101A6A00D96EDA6A020ED926DE2A000EDD221200AB
:101A7A00000E096E000E086E0350D96EDA6ADFCFC7
:101A8A00F6FF060EF76E0800F5502A0AD8A450EFA2
:101A9A000DF052EF0DF077EF0DF00350D96EDA6AC0
:101AAA00DF2A0450D96EDA6A020EDF26DF5CD96EAD
:101ABA00DA6ADECF08F0DECF09F08AEF0DF00A0EFF
:101ACA000802F3CF05F0F4CF06F00902F350062618
:101ADA0007500524086E000E0620096E0350D96EC1
:101AEA00DA6ADF2A0350D96EDA6ADFCFF6FF060E0A
:101AFA00F76E0800F550D00F076E090E076488EFDD
:101B0A000DF08AEF0DF064EF0DF008C003F009C084
:101B1A0004F0120000016451475C066E6551485892
:101B2A00076E66514958086E67514A58096E09503E
:101B3A000810071007E10A0E065CD8B0A7EF0DF0EF
:101B4A00A9EF0DF0ACEF0DF0000EDFEF0DF0035032
:101B5A000410D8B4B3EF0DF0B5EF0DF0D9EF0DF0D6
:101B6A000550D96EDA6ADF50D8A4BEEF0DF0C0EF87
:101B7A000DF0A9EF0DF003500410D8B4C7EF0DF023
:101B8A00C9EF0DF0A9EF0DF00550D96EDA6A010E12
:101B9A00DF6E47C064F048C065F049C066F04AC0CD
:101BAA0067F0010EDFEF0DF00550D96EDA6ADF6AD1
:101BBA00A9EF0DF01200C282030E116E980EE82EE4
:101BCA00FED7112EFCD7C2B2EDEF0DF0EFEF0DF0FC
:101BDA00E8EF0DF0C450126E116AC3501124196E49
:101BEA00000E12201A6E19C003F01AC004F0056A1A
:101BFA00066AF40E076E010E086E000E096E000EDC
:101C0A000A6EADEC0FF003C015F004C016F005C063
:101C1A0017F006C018F015C011F016C012F017C060
:101C2A0013F018C014F00B0E20EF0EF0D8901432F7
:101C3A00133212321132E82E1BEF0EF011C00FF0E0
:101C4A0012C010F0120000017AA12EEF0EF030EF50
:101C5A000EF036EF0EF011C00BF010C00CF00FECC6
:101C6A0011F013BE3DEF0EF03BEF0EF041EF0EF018
:101C7A00000E136E000E126E000E166E000E156E1A
:101C8A0051EF0EF0000E046E200E036E10C005F028
:101C9A00E8EC0CF0154A162A1250155C1650800A08
:101CAA00146E1350800A1458D8A05EEF0EF060EF3D
:101CBA000EF047EF0EF000017AB166EF0EF068EF12
:101CCA000EF06EEF0EF011C00BF010C00CF00FEC1E
:101CDA0011F01200056E066A9488000E086E000E56
:101CEA00076E948600D000D082A87EEF0EF080EFB7
:101CFA000EF08FEF0EF007500708036E010E046E08
:101D0A00032A8AEF0EF0D8900436032E88EF0EF0DD
:101D1A0004500612949600D000D0074A082A08BE3A
:101D2A00A0EF0EF0085009E1080E075CD8A0A0EF5A
:101D3A000EF0A2EF0EF076EF0EF00550D8B4A8EF31
:101D4A000EF0AAEF0EF0AEEF0EF094988B98AFEF6C
:101D5A000EF09488948600D000D094960650120013
:101D6A000750081009100A10D8B4BEEF0EF0C0EFE1
:101D7A000EF0F0EF0EF0010E0B6ECAEF0EF0D890D7
:101D8A000736083609360A360B2A0AAECFEF0EF0A6
:101D9A00D1EF0EF0C4EF0EF00750035C0850045860
:101DAA00095005580A500658D8A0DEEF0EF0E0EFA9
:101DBA000EF0E8EF0EF00750035E0850045A09507F
:101DCA00055A0A50065AD8900A320932083207329E
:101DDA000B2ED1EF0EF003C003F004C004F005C0CF
:101DEA0005F006C006F01200046E04C003F0010EEE
:101DFA0003168A500318FE0B03188A6E04C003F0F8
:101E0A00D8900332010E031603468A500318FD0BBD
:101E1A0003188A6E04C003F0D8900332D8900332B4
:101E2A00010E0316034603468A500318FB0B0318D8
:101E3A008A6E04C003F0D8900332D8900332D89047
:101E4A000332010E03160346034603468A5003185B
:101E5A00F70B03188A6E8A8A210EE82EFED7000035
:101E6A008A9A210EE82EFED700001200000E086E94
:101E7A00000E076E05500610D8B446EF0FF048EF73
:101E8A000FF070EF0FF0010E096E50EF0FF0D890BF
:101E9A0005360636092A06AE55EF0FF057EF0FF052
:101EAA004CEF0FF0D890073608360550035C065001
:101EBA000458D8A063EF0FF065EF0FF06AEF0FF048
:101ECA000550035E0650045A0780D8900632053240
:101EDA00092E57EF0FF007C003F008C004F01200F4
:101EEA00F00E89164B506308D96EDA6ADF508C6E91
:101EFA008BEF0FF089809EEF0FF089829EEF0FF033
:101F0A0089849EEF0FF089869EEF0FF04B50000AEE
:101F1A00D8B47FEF0FF0010AD8B482EF0FF0030AAA
:101F2A00D8B485EF0FF0010AD8B488EF0FF09EEF0E
:101F3A000FF04B2A030E4B64A5EF0FF0A7EF0FF03B
:101F4A00A8EF0FF04B6AD768060ED66EF29412000D
:101F5A00000E0B6E000E0C6E000E0D6E000E0E6E55
:101F6A0003A0BAEF0FF0BCEF0FF0C4EF0FF0075069
:101F7A000B2608500C2209500D220A500E22D89026
:101F8A000736083609360A36D89006320532043240
:101F9A0003320350041005100610D8A4D7EF0FF02F
:101FAA00D9EF0FF0B5EF0FF00BC003F00CC004F03F
:101FBA000DC005F00EC006F012000C500D10D8B47A
:101FCA00E9EF0FF0EBEF0FF00FEF10F0010E0E6ECE
:101FDA00F3EF0FF0D8900C360D360E2A0DAEF8EF4F
:101FEA000FF0FAEF0FF0EFEF0FF00C500A5C0D5004
:101FFA000B58D8A003EF10F005EF10F009EF10F01E
:10200A000C500A5E0D500B5AD8900D320C320E2E1F
:10201A00FAEF0FF00AC00AF00BC00BF012001DEC29
:10202A0012F0D00E45EC10F0000E45EC10F0EAEC80
:10203A0011F01DEC12F0D10E45EC10F00950D96EDA
:10204A00DA6A010E6FEC0EF036EC12F0DF6E095010
:10205A00D96EDA6A010ED926010E6FEC0EF036EC53
:10206A0012F0DF6E0950D96EDA6A020ED926000E16
:10207A006FEC0EF036EC12F0DF6EEAEC11F01200A3
:10208A00036E000E056E000E046E03AE4FEF10F0E5
:10209A0051EF10F054EF10F0948856EF10F0949826
:1020AA008B9800D000D0948600D000D09496D89017
:1020BA000336044A052A05BE6CEF10F0055009E103
:1020CA00080E045CD8A06CEF10F06EEF10F04AEF27
:1020DA0010F0948800D000D0948600D000D0949656
:1020EA0012008CEF10F006C0F6FF07C0F7FFF86A7F
:1020FA00050EF76403D00800F55005D0F6CFE9FFC6
:10210A00F7CFEAFFEF500FEC12F0064A072A06C093
:10211A00F6FF07C0F7FFF86A050EF76403D0080058
:10212A00F55005D0F6CFE9FFF7CFEAFFEF500009E7
:10213A00D8A4A2EF10F0A4EF10F078EF10F012007C
:10214A00936A8A988A9A340E086EF20EE82EFED79F
:10215A00082EFCD7030EF9EC0EF00D0E086EFC0EDD
:10216A00E82EFED7082EFCD7030EF9EC0EF0640E0B
:10217A00E82EFED7030EF9EC0EF0020EF9EC0EF083
:10218A00280EFDEC11F00C0EFDEC11F0060EFDEC24
:10219A0011F02AEC12F012002EC030F0DEEF10F02F
:1021AA002DC022F0300E236E2FC024F0256AB1EC28
:1021BA0004F030C0F6FF060EF76E0800F55000096D
:1021CA00D8A4EAEF10F0ECEF10F0D5EF10F0000E03
:1021DA002E6E000E2D6E1200B60EF66E240EF76EDF
:1021EA00000EF86E0900F5CFC2F00900F5CFC3F072
:1021FA0000EE60F04F0EEE6AE806FDE14B6A4A6AAD
:10220A00496A486A476A4C904C92000EF86E00017F
:10221A009DEF09F0000E0F6E000E0E6E1EEF11F00C
:10222A000DC003F0046A0CC005F0E8EC0CF00E4A8D
:10223A000F2A0B500E24D96EDA6ADF500D6E0D503C
:10224A00D8A42AEF11F02CEF11F015EF11F01200BB
:10225A000D6E0DC003F0046A000E066E0A0E056EBE
:10226A0091EC0CF003C00BF004C00CF00DC003F0AD
:10227A00046A000E066E0A0E056E78EC0BF0035027
:10228A00100DF3500B241200330E396E31C03AF0A0
:10229A00000E3D6E000E3C6E000E446E000E436E44
:1022AA003A0E2D6E32C02EF0390E2F6ED1EC10F090
:1022BA0031503C24D96EDA6ADF6A12000ABE68EF2E
:1022CA0011F06AEF11F070EF11F009C009F00AC0BD
:1022DA000AF07CEF11F009C00BF00AC00CF00B1EDB
:1022EA000C1E0B4A0C2A0BC009F00CC00AF0120093
:1022FA000F6E1DEC12F0D00E45EC10F0000E45ECFE
:10230A0010F0000E45EC10F00E502DEC11F045ECDB
:10231A0010F00F502DEC11F045EC10F0EAEC11F032
:10232A0012000F013C953C833C91C250830B180963
:10233A00C26EF30EC116FC0EC116C050C70B20099F
:10234A00C06EC050F80B0209C06EC2801200046E43
:10235A0004C0A9FF03C0A8FFA69EA69CA684550E8A
:10236A00A76EAA0EA76EA682A6B2BEEF11F0C0EFA4
:10237A0011F0B9EF11F0A6941200086E0804D8A45F
:10238A00C9EF11F0CBEF11F0D0EF11F00750800F29
:10239A00096ED3EF11F00750C00F096E0950FDEC1A
:1023AA0011F01200956AF00E9216F00E89168C6AD8
:1023BA00D59CD59AD596D550F80B0309D56ED76812
:1023CA00060ED66EF28AD58E120094968B96949843
:1023DA008B98030EE82EFED700009486030EE82E93
:1023EA00FED700009488030EE82EFED700001200E4
:1023FA00066E8A9806380F0BF9EC0EF00650F9ECC7
:10240A000EF0060E056E300EE82EFED7052EFCD70E
:10241A0000D01200056E8A8805380F0BF9EC0EF011
:10242A000550F9EC0EF0210EE82EFED7000012003E
:10243A0094988B98030EE82EFED7000094968B96FC
:10244A00030EE82EFED700001200010EFDEC11F07B
:10245A00060E076E300EE82EFED7072EFCD700D0E8
:10246A001200046E04C003F00F0E031604380F0B9B
:10247A000A0DF35003241200948094829484948A5F
:10248A000F013A6B949C8B9C1200036E03C0A9FF48
:10249A00A69EA69CA680A8501200948694880F0136
:1024AA003A973A99120052EC12F01200FF01120008
:020000040030CA
:0E000000FF281F3CFFBF85FF0FC00FE00F4021
:00000001FF
