:040000001EEF00F0FF
:100008005D82D9CF01F0DACF02F0F2A40EEF00F052
:1000180010EF00F018EF00F0C2EC0DF0010E4B26C7
:10002800000E4C224D224E2202C0DAFF01C0D9FF39
:100038005D9211005EEF0FF0E4EC08F00C6E0C50CE
:10004800D8A429EF00F02BEF00F02DEF00F0D1EF4E
:1000580001F05B50D8B433EF00F035EF00F0A3EFB8
:1000680001F03CEC10F05B6AD1EF01F0030E0C18C4
:10007800D8A441EF00F043EF00F0D1EF01F0010EFA
:10008800766FD1EF01F00C04D8A44DEF00F04FEFDC
:1000980000F050EF00F0982B020E0C18D8A457EF80
:1000A80000F059EF00F05AEF00F09807030E0C1813
:1000B800D8A461EF00F063EF00F0D1EF01F0020E79
:1000C800766FD1EF01F00C04D8A46DEF00F06FEF5C
:1000D80000F070EF00F0992B020E0C18D8A477EFFF
:1000E80000F079EF00F07AEF00F09907030E0C1892
:1000F800D8A481EF00F083EF00F085EF00F0030E45
:10010800766F040E0C18D8A48CEF00F08EEF00F078
:10011800D1EF01F043EF00F00C04D8A496EF00F003
:1001280098EF00F099EF00F09A2B020E0C18D8A463
:10013800A0EF00F0A2EF00F0A4EF00F00F0E9B2755
:100148003B0E9B65AAEF00F0ACEF00F0ADEF00F0BE
:100158009B6B170E9A65B3EF00F0B5EF00F0B6EFA2
:1001680000F09A6B030E0C18D8A4BDEF00F0BFEF97
:1001780000F0C1EF00F0040E766F040E0C18D8A43E
:10018800C8EF00F0CAEF00F0D1EF01F063EF00F024
:100198000C04D8A4D2EF00F0D4EF00F0D5EF00F0B3
:1001A8009C2B020E0C18D8A4DCEF00F0DEEF00F058
:1001B800E0EF00F00F0E9D273B0E9D65E6EF00F087
:1001C800E8EF00F0E9EF00F09D6B170E9C65EFEF8C
:1001D80000F0F1EF00F0F2EF00F09C6B030E0C184A
:1001E800D8A4F9EF00F0FBEF00F0FDEF00F0050EEA
:1001F800766F040E0C18D8A404EF01F006EF01F096
:10020800D1EF01F0030E766FD1EF01F00C04D8B4F2
:1002180010EF01F012EF01F01BEF01F0020E0C18C5
:10022800D8A419EF01F01BEF01F026EF01F0A0515F
:10023800D8B421EF01F024EF01F0010E25EF01F011
:10024800000EA06F030E0C18D8A42DEF01F02FEFAD
:1002580001F031EF01F0060E766F040E0C18D8A4E9
:1002680038EF01F03AEF01F0D1EF01F0040E766FAC
:10027800D1EF01F00C04D8B444EF01F046EF01F0DF
:100288004FEF01F0020E0C18D8A44DEF01F04FEF1C
:1002980001F05AEF01F0A151D8B455EF01F058EF31
:1002A80001F0010E59EF01F0000EA16F030E0C18BA
:1002B800D8A461EF01F063EF01F065EF01F0070EDC
:1002C800766F040E0C18D8A46CEF01F06EEF01F0F5
:1002D80070EF01F0050E766F0C04D8A476EF01F0EC
:1002E80078EF01F097EF01F0980E056ECDEC09F06C
:1002F80067EC10F0000E076E010EDEEC0FF0DC0E5E
:10030800066E7F0E076EC3EC0EF00B0E0B6E260EFC
:100318000A6E5E0EE82EFED70A2EFCD70B2EFAD7F1
:100328000001766B5C68020E0C18D8A49EEF01F0F1
:10033800A0EF01F0D1EF01F0766BD1EF01F00001F1
:1003480076510A6E0B6A0B50000AD8B4AEEF01F072
:10035800D1EF01F00A50000AD8B43AEF00F0010AD0
:10036800D8B447EF00F0030AD8B467EF00F0010AE9
:10037800D8B490EF00F0070AD8B4CCEF00F0010A27
:10038800D8B40AEF01F0030AD8B43EEF01F0010A2D
:10039800D8B470EF01F0D1EF01F012005C50000109
:1003A8007619D8B4DAEF01F0DCEF01F02AEF03F0A8
:1003B80067EC10F076C05CF02AEF03F0A70E356EFC
:1003C800020E366E7F0E376EA4C038F0396AA3C0AD
:1003D8003AF03B6AA2C03CF03D6A7AEC0FF0000E9E
:1003E800076E010EDEEC0FF0A70E066E076AC3EC6F
:1003F8000EF00001A051D8A404EF02F006EF02F0BD
:100408000CEF02F0F90EB86F7F0EB96F10EF02F023
:10041800FC0EB86F7F0EB96F7751D8A416EF02F0B3
:1004280018EF02F01EEF02F0F50EBA6F7F0EBB6FE9
:1004380022EF02F0F10EBA6F7F0EBB6FA70E356E7A
:100448002E0E366E7F0E376E6EC038F06FC039F0E4
:10045800BAC03AF0BBC03BF0B8C03CF0B9C03DF000
:100468007AEC0FF0000E076E020EDEEC0FF0A70E0E
:10047800066E076AC3EC0EF058EF03F0000E076E25
:10048800010EDEEC0FF0510E066E7F0E076EC3EC08
:100498000EF0A70E356EC80E366E7F0E376E98C0FA
:1004A80038F0396A7AEC0FF0000E076E020EDEECB7
:1004B8000FF03BEF02F0000E076E010EDEEC0FF0BE
:1004C800730E066E7F0E076EC3EC0EF0A70E356E28
:1004D800C80E366E7F0E376E99C038F0396A7AECDE
:1004E8000FF0000E076E020EDEEC0FF03BEF02F08D
:1004F800000E076E010EDEEC0FF0B70E066E7F0ED3
:10050800076EC3EC0EF0A70E356E190E366E7F0E11
:10051800376E9AC038F0396A9BC03AF03B6A7AEC79
:100528000FF0000E076E020EDEEC0FF03BEF02F04C
:10053800000E076E010EDEEC0FF0840E066E7F0EC5
:10054800076EC3EC0EF0A70E356E190E366E7F0ED1
:10055800376E9CC038F0396A9DC03AF03B6A7AEC35
:100568000FF0000E076E020EDEEC0FF03BEF02F00C
:10057800000E076E010EDEEC0FF0620E066E7F0EA7
:10058800076EC3EC0EF0000E076E020EDEEC0FF0E5
:100598000001A051D8A4D3EF02F0D5EF02F0DBEFB1
:1005A80002F0F50EBC6F7F0EBD6FDFEF02F0F10EAB
:1005B800BC6F7F0EBD6FBCC006F0BDC007F0C3ECBA
:1005C8000EF058EF03F0000E076E010EDEEC0FF090
:1005D800400E066E7F0E076EC3EC0EF0000E076E1F
:1005E800020EDEEC0FF00001A151D8B4FEEF02F0CC
:1005F80000EF03F006EF03F0EA0EBE6F7F0EBF6F49
:100608000AEF03F0E30EBE6F7F0EBF6FBEC006F0A9
:10061800BFC007F0C3EC0EF058EF03F0000E076EF2
:10062800010EDEEC0FF0950E066E7F0E076EC3EC22
:100638000EF0000E076E020EDEEC0FF0A60E066E30
:100648007F0E076EC3EC0EF058EF03F000017651F1
:10065800A56FA66BA651000AD8B435EF03F058EF82
:1006680003F0A551000AD8B4E2EF01F0010AD8B4AA
:1006780042EF02F0030AD8B45FEF02F0010AD8B4DF
:100688007CEF02F0070AD8B49CEF02F0010AD8B454
:10069800BCEF02F0030AD8B4E7EF02F0010AD8B4BD
:1006A80012EF03F058EF03F012002350D96EDA6A04
:1006B800DECFF6FFDDCFF7FF0800F550250AD8A4F6
:1006C80068EF03F06AEF03F089EF04F02350D96E66
:1006D800DA6ADE2A000EDD22000E0001696F000EC4
:1006E800686F68C057F06A696B692E6A98EF03F003
:1006F80057822350D96EDA6ADE2A000EDD2298EF7F
:1007080003F0010E2E6E98EF03F02350D96EDA6ACB
:10071800DECFF6FFDDCFF7FF0800F550300AD8B47A
:100728007CEF03F085EF03F02E50D8B49EEF03F072
:10073800A0EF03F089EF03F023C003F024C004F016
:10074800EDEC0AF003C068F004C069F0000169BF6D
:10075800B2EF03F0B0EF03F0B7EF03F05780686D26
:10076800691FD8B0692B2350D96EDA6ADECF2CF016
:10077800DDCF2DF02CC0F6FF2DC0F7FF0800F55097
:10078800640AD8B4CAEF03F0CCEF03F0DAEF03F051
:100798002CC0F6FF2DC0F7FF0800F550690AD8A451
:1007A800D8EF03F0DAEF03F0FEEF03F024C0D9FF2F
:1007B80025C0DAFF020EDF26DF5CD96EDA6ADECFEB
:1007C80028F0DECF29F0010E2C24266E000E2D20F5
:1007D800276E2350D96EDA6A26C0DEFF27C0DDFFF8
:1007E80022C017F028C018F029C019F09BEC04F0BB
:1007F8009AEF04F02E6A2350D96EDA6ADECFF6FF3C
:10080800DDCFF7FF0800F550730AD8A40EEF04F007
:1008180010EF04F01AEF04F02350D96EDA6ADE2ADA
:10082800000EDD22010E2E6E66EF04F02350D96E05
:10083800DA6ADECFF6FFDDCFF7FF0800F5506C0A65
:10084800D8A429EF04F02BEF04F066EF04F023504E
:10085800D96EDA6ADECF26F0DDCF27F0010E262624
:10086800000E272226C0F6FF27C0F7FF0800F55024
:100878006C0AD8A442EF04F044EF04F066EF04F0E9
:100888002350D96EDA6ADECF26F0DDCF27F0020ECC
:100898002626000E272226C0F6FF27C0F7FF0800ED
:1008A800F550730AD8A45BEF04F05DEF04F066EF2F
:1008B80004F02350D96EDA6A030EDE26000EDD221C
:1008C80016EF04F02E50D8B46CEF04F06EEF04F07D
:1008D80081EF04F022C00BF024C0D9FF25C0DAFF55
:1008E800020EDF26DF5CD96EDA6ADECF0CF0DECFCF
:1008F8000DF04DEC05F09AEF04F02350D96EDA6A4A
:10090800DE2A000EDD229AEF04F02350D96EDA6A4F
:10091800DECFF6FFDDCFF7FF0800F550036E046A5F
:1009280022C005F043EC0BF081EF04F01200010E39
:100938001C6E19BEA2EF04F0A5EF04F0010EA6EF9D
:1009480004F0000E1F6E68C01DF069C01EF01F5035
:10095800D8B4B1EF04F0B3EF04F0CAEF04F01D0609
:10096800D8A01E061F50D8A4BCEF04F0BEEF04F0B8
:10097800C4EF04F0000E1B6E2B0E1A6EC8EF04F0C5
:10098800000E1B6E2D0E1A6E1AC01FF0000E216E7F
:100998001F0E206E0001976BFEEF04F02006D8A012
:1009A80021062050780FD96EDA6A18C003F019C0F2
:1009B80004F0000E066E0A0E056E96EC0AF003C0EF
:1009C80009F004C00AF096EC0FF00950300FDF6E02
:1009D8001C6A1D06D8A01E0618C003F019C004F032
:1009E800000E066E0A0E056E35EC0AF003C018F00C
:1009F80004C019F021BE09EF05F0215008E12004D8
:100A0800D8A009EF05F00BEF05F030EF05F018500E
:100A18001910D8A412EF05F014EF05F0D2EF04F086
:100A28001C50D8A41AEF05F01CEF05F0D2EF04F023
:100A38001EBE27EF05F01E5008E11D04D8A027EFC1
:100A480005F029EF05F030EF05F057B22EEF05F06D
:100A580030EF05F0D2EF04F01F50D8B436EF05F0B0
:100A680038EF05F041EF05F02006D8A02106205008
:100A7800780FD96EDA6A1FC0DFFF17C010F0205058
:100A8800780F116E1DC012F01EC013F084EC0CF02C
:100A980012000CC014F00DC015F014501510D8A495
:100AA80058EF05F05AEF05F05EEF05F0D50E146E1D
:100AB8007F0E156E000E176E000E166E66EF05F0AF
:100AC800164A172A165014240E6E175015200F6E4A
:100AD8000EC0F6FF0FC0F7FFF86A050EF76403D0E3
:100AE8000800F55005D0F6CFE1FFF7CFE2FFE75059
:100AF8000009D8A482EF05F084EF05F064EF05F053
:100B080016C010F017C011F068C012F069C013F0D9
:100B180057B091EF05F093EF05F0CAEF05F09FEF9E
:100B280005F0000E046E200E036E0BC005F043ECBA
:100B38000BF0164A172A1250165C1750800A0E6ED0
:100B48001350800A0E58D8A0ACEF05F0AEEF05F0B0
:100B580095EF05F0CAEF05F014C0F6FF15C0F7FFD2
:100B6800F86A050EF76403D00800F55005D0F6CFF3
:100B7800E1FFF7CFE2FFE7500E6E0E50036E046AF6
:100B88000BC005F043EC0BF0144A152A1006D8A048
:100B98001106102806E11128D8A4D5EF05F0D7EFE3
:100BA80005F0B0EF05F057A0DCEF05F0DEEF05F03B
:100BB800F9EF05F0EAEF05F0000E046E200E036E63
:100BC8000BC005F043EC0BF0164A172A1250165CBE
:100BD8001750800A0E6E1350800A0E58D8A0F7EFEF
:100BE80005F0F9EF05F0E0EF05F01200000E92ECC9
:100BF80010F0076EA50E0718D8B405EF06F007EF3A
:100C080006F04EEF06F00650D96EDA6A160EDF6E61
:100C18000650D96EDA6A010ED9261A0EDF6E065012
:100C2800D96EDA6A020ED926060EDF6E0650D96E24
:100C3800DA6A030ED9261E0EDF6E0650D96EDA6AFE
:100C4800040ED926080EDF6E0650D96EDA6A050E34
:100C5800D926DF6A0650D96EDA6A060ED926070E3B
:100C6800DF6E0650D96EDA6A070ED926DF6A06509B
:100C7800D96EDA6A080ED926010EDF6E0650D96ED3
:100C8800DA6A090ED926DF6A06C005F0CDEC09F04C
:100C9800A6EF06F00650D96EDA6A010E92EC10F053
:100CA800DF6E0650D96EDA6A010ED926020E92EC72
:100CB80010F0DF6E0650D96EDA6A020ED926030EDE
:100CC80092EC10F0DF6E0650D96EDA6A030ED92660
:100CD800040E92EC10F0DF6E0650D96EDA6A040E3C
:100CE800D926050E92EC10F0DF6E0650D96EDA6A3E
:100CF800050ED926060E92EC10F0DF6E0650D96E5E
:100D0800DA6A060ED926070E92EC10F0DF6E06504E
:100D1800D96EDA6A070ED926080E92EC10F0DF6E4B
:100D28000650D96EDA6A080ED926090E92EC10F030
:100D3800DF6E0650D96EDA6A090ED9260A0E92ECD1
:100D480010F0DF6E12001C501D10D8B4AEEF06F084
:100D5800B0EF06F049EF07F0040E1C241E6E000EDB
:100D68001D201F6E1EC0F6FF1FC0F7FF0800F550BC
:100D78000009D8A4C2EF06F0C4EF06F0C6EF06F0EB
:100D880049EF07F01CC051F01DC052F0586A020E1E
:100D980051241E6E000E52201F6E1EC0F6FF1FC08B
:100DA800F7FF0900F5CF20F00900F5CF21F020C0AA
:100DB800F6FF21C0F7FF0900F5CF4FF00A00F5CF85
:100DC80050F051C0F6FF52C0F7FF0900F5CF1EF0F2
:100DD8000900F5CF1FF01EC0F6FF1FC0F7FF09007E
:100DE800F5500900F510D8A4FCEF06F0FEEF06F068
:100DF80008EF07F0000E246E000E256E000E266E1A
:100E0800000E276E34EF07F0400E036E420E046E9C
:100E18000F0E056E000E066E51C0F6FF52C0F7FFAA
:100E28000900F5CF1EF00900F5CF1FF01EC0F6FF30
:100E38001FC0F7FF0900F5CF20F00900F5CF21F01A
:100E480020C007F021C008F0096A0A6AECEC0BF030
:100E580003C024F004C025F005C026F006C027F022
:100E680024C022F025C023F022C010F023C011F0C6
:100E78004FC012F050C013F098EC0BF0000ECF6E7C
:100E8800000ECE6E9E909D80CD801200660ED36EB1
:100E98000F013C6B9690C8EC0FF0F3EC0FF0F2ECFE
:100EA8000EF0A0EC10F089EC10F02BEC10F0980E7E
:100EB800066EFAEC05F0F28CF28E4BC003F04CC0D3
:100EC80004F04DC005F04EC006F0640E076E000E2B
:100ED800086E000E096E000E0A6EC9EC0CF0035085
:100EE800041005100610D8A47CEF07F07EEF07F079
:100EF8008AEF07F00DEC0DF00FC06EF010C06FF028
:100F08006EC00FF06FC010F05DEC09F04BC003F03D
:100F18004CC004F04DC005F04EC006F0F40E076E4C
:100F2800010E086E000E096E000E0A6EC9EC0CF078
:100F38000350041005100610D8A4A5EF07F0A7EF7A
:100F480007F0ABEF07F0A20E096E61EC0EF0DBECD8
:100F580007F06AEC08F020EC00F04BC003F04CC03E
:100F680004F04DC005F04EC006F0320E076E000EBC
:100F7800086E000E096E000E0A6EC9EC0CF00350E4
:100F8800041005100610D8A4CCEF07F0CEEF07F038
:100F9800D0EF07F0D2EC01F00D0E4A6EFC0EE82EF1
:100FA800FED74A2EFCD761EF07F01EEF00F00001D4
:100FB800A4513C0DF3CF03F0F4CF04F0A351032464
:100FC8000A6E000E04200B6E9A513C0DF3CF03F00D
:100FD800F4CF04F09B510324066E000E0420076E24
:100FE8009C513C0DF3CF03F0F4CF04F09D51032442
:100FF800086E000E0420096E056A0850065C095048
:101008000758D8B00AEF08F00CEF08F026EF08F000
:1010180006500A5C07500B58D8A015EF08F017EFD8
:1010280008F03EEF08F008500A5C09500B58D8B099
:1010380020EF08F022EF08F03EEF08F0010E056EF1
:101048003EEF08F006500A5C07500B58D8B02FEF57
:1010580008F031EF08F022EF08F008500A5C095058
:101068000B58D8B03AEF08F03CEF08F03EEF08F024
:1010780022EF08F00550D8B444EF08F046EF08F026
:1010880063EF08F098516E5D000E6F59D8B04FEFBE
:1010980008F051EF08F055EF08F0010E776F64EF94
:1010A80008F09951036E046A03506E5D04506F593D
:1010B800D8A061EF08F063EF08F064EF08F0776BF1
:1010C80077B102D08D9001D08D8012000001A0511F
:1010D800D8A471EF08F073EF08F075EF08F0E3EFAC
:1010E80008F05B50D8A47BEF08F07DEF08F0B7EF6D
:1010F80008F09E51A419D8A484EF08F086EF08F0F0
:10110800B7EF08F09F51A319D8A48DEF08F08FEF1F
:1011180008F0B7EF08F0A251D8A495EF08F097EFC0
:1011280008F0B7EF08F0010E5B6E4BC06CF04CC0D6
:101138006DF0A151D8A4A3EF08F0A5EF08F0B1EF26
:1011480008F0030E116EE80E106E050E136EDC0E1D
:10115800126E98EC0BF0B7EF08F0FD0E1C6E7E0EC9
:101168001D6EA7EC06F05B50D8B4BDEF08F0BFEFDA
:1011780008F0E3EF08F000016C51286E6D51296EFC
:101188002A6A2B6A28504B5C2C6E29504C582D6EBD
:101198002A504D582E6E2B504E582F6E2F502E1011
:1011A8000BE1E80E2C5C030E2D58D8A0DEEF08F0FA
:1011B800E0EF08F0E3EF08F03CEC10F05B6A120097
:1011C800036A82A0EAEF08F0ECEF08F002EF09F0FA
:1011D80000017551D8A4F3EF08F0F5EF08F004EF1B
:1011E80009F082A0FAEF08F0FCEF08F004EF09F02C
:1011F800010E036E010E756F04EF09F00001756BA7
:1012080082A209EF09F00BEF09F020EF09F0745101
:10121800D8A411EF09F013EF09F021EF09F082A229
:1012280018EF09F01AEF09F021EF09F0020E036E2A
:10123800010E746F21EF09F0746B82A426EF09F098
:1012480028EF09F03DEF09F07351D8A42EEF09F00B
:1012580030EF09F03EEF09F082A435EF09F037EFDF
:1012680009F03EEF09F0030E036E010E736F3EEFB7
:1012780009F0736B82AA43EF09F045EF09F05AEFC2
:1012880009F07251D8A44BEF09F04DEF09F05BEF6C
:1012980009F082AA52EF09F054EF09F05BEF09F068
:1012A800040E036E010E726F5BEF09F0726B035050
:1012B8001200100E0F5C270E1058D8A066EF09F028
:1012C80068EF09F06CEF09F0270E106E0F0E0F6E25
:1012D8000FC003F010C004F0030E066EE80E056E92
:1012E8004EEC0DF0E70E0324F66E7E0E0420F76E2A
:1012F8000800F5CF60F0000E066E640E056E0FC094
:1013080003F010C004F04EEC0DF003C00AF004C066
:101318000BF0000E0D6E0A0E0C6E2FEC0EF0E70EA1
:101328000A24F66E7E0E0B20F76E0800F5CF61F0EA
:10133800000E066E0A0E056E0FC003F010C004F012
:101348004EEC0DF003C00AF004C00BF0000E0D6E59
:101358000A0E0C6E2FEC0EF0E70E0A24F66E7E0EC7
:101368000B20F76E0800F5CF62F00FC00AF010C02E
:101378000BF0000E0D6E0A0E0C6E2FEC0EF0E70E41
:101388000A24F66E7E0E0B20F76E0800F5CF63F088
:101398001200A50E036E000EB0EC0FF00550D96ECA
:1013A800DA6ADF50036E010EB0EC0FF00550D96E0B
:1013B800DA6A010ED926DF50036E020EB0EC0FF088
:1013C8000550D96EDA6A020ED926DF50036E030E75
:1013D800B0EC0FF00550D96EDA6A030ED926DF504B
:1013E800036E040EB0EC0FF00550D96EDA6A040EE5
:1013F800D926DF50036E050EB0EC0FF00550D96EFC
:10140800DA6A050ED926DF50036E060EB0EC0FF02F
:101418000550D96EDA6A060ED926DF50036E070E1C
:10142800B0EC0FF00550D96EDA6A070ED926DF50F6
:10143800036E080EB0EC0FF00550D96EDA6A080E8C
:10144800D926DF50036E090EB0EC0FF00550D96EA7
:10145800DA6A090ED926DF50036E0A0EB0EC0FF0D7
:101468001200086A06BE3DEF0AF03BEF0AF043EFB0
:101478000AF0056C061ED8B0062A010E086E04BED6
:101488004AEF0AF048EF0AF050EF0AF0036C041E26
:10149800D8B0042A010E081A000E0A6E000E096E52
:1014A80005500610D8B45BEF0AF05DEF0AF085EF3F
:1014B8000AF0010E076E65EF0AF0D8900536063679
:1014C800072A06AE6AEF0AF06CEF0AF061EF0AF03D
:1014D800D89009360A360550035C06500458D8A03F
:1014E80078EF0AF07AEF0AF07FEF0AF00550035E12
:1014F8000650045A0980D89006320532072E6CEF40
:101508000AF00850D8B48BEF0AF08DEF0AF091EF8B
:101518000AF0096C0A1ED8B00A2A09C003F00AC0EA
:1015280004F01200086A04BE9EEF0AF09CEF0AF06D
:10153800A4EF0AF0036C041ED8B0042A010E086E4A
:1015480006BEABEF0AF0A9EF0AF0AFEF0AF0056CA0
:10155800061ED8B0062A05500610D8B4B6EF0AF011
:10156800B8EF0AF0DCEF0AF0010E076EC0EF0AF0E0
:10157800D89005360636072A06AEC5EF0AF0C7EF3B
:101588000AF0BCEF0AF00550035C06500458D8A0D6
:10159800D0EF0AF0D2EF0AF0D6EF0AF00550035E5A
:1015A8000650045AD89006320532072EC7EF0AF0C3
:1015B8000850D8B4E2EF0AF0E4EF0AF0E8EF0AF0D6
:1015C800036C041ED8B0042A03C003F004C004F05E
:1015D8001200000E096E000E086E0350D96EDA6A0A
:1015E800DECFF6FFDDCFF7FF0800F5502A0AD8A4B2
:1015F80000EF0BF002EF0BF02BEF0BF00350D96E5E
:10160800DA6ADE2A000EDD220450D96EDA6A020E8A
:10161800DF26DF5CD96EDA6ADECF08F0DECF09F0AC
:101628003EEF0BF00A0E0802F3CF05F0F4CF06F0F8
:101638000902F350062607500524086E000E0620FE
:10164800096E0350D96EDA6ADE2A000EDD220350D5
:10165800D96EDA6ADECFF6FFDDCFF7FF0800F55066
:10166800D00F076E090E07643CEF0BF03EEF0BF04E
:1016780016EF0BF008C003F009C004F01200055083
:10168800D8B449EF0BF04BEF0BF053EF0BF00550CC
:10169800D8A451EF0BF053EF0BF058EF0BF00350B9
:1016A800A3EC10F097EF0BF00550D96EDA6A090E2B
:1016B800D926DE50DE10D8B464EF0BF066EF0BF0DD
:1016C8007FEF0BF00550D96EDA6A090ED92605505E
:1016D800E16EE26A020EE126DE50E65CE650800A20
:1016E8000A6EDE50800A0A58D8B07DEF0BF07FEF03
:1016F8000BF097EF0BF00550D96EDA6A020ED92677
:10170800DF50066E0550D96EDA6ADF500624D96EAE
:10171800DA6A03C0DFFF0550D96EDA6A020ED926ED
:10172800DE2A000EDD22120010501110D8A49FEFFF
:101738000BF0A1EF0BF0A3EF0BF0EBEF0BF0200E8B
:10174800036EA10E046E070E056E000E066E10C025
:1017580007F011C008F0096A0A6AECEC0BF003C044
:1017680018F004C019F005C01AF006C01BF018C024
:1017780014F019C015F01AC016F01BC017F0040EAB
:10178800CBEF0BF0D8901732163215321432E82E00
:10179800C6EF0BF014C053F015C054F0535054105A
:1017A800D8A4D9EF0BF0DBEF0BF0DFEF0BF0000E56
:1017B800546E010E536E5304BB6EBC6A9E929D829A
:1017C800BA8412C055F013C056F0010E596E1200BB
:1017D800000E0B6E000E0C6E000E0D6E000E0E6EDF
:1017E8000750081009100A10D8B4FDEF0BF0FFEFEE
:1017F8000BF035EF0CF0010E0F6E09EF0CF0D890DE
:101808000736083609360A360F2A0AAE0EEF0CF0EC
:1018180010EF0CF003EF0CF0D8900B360C360D36A9
:101828000E360750035C08500458095005580A50F2
:101838000658D8A022EF0CF024EF0CF02DEF0CF096
:101848000750035E0850045A0950055A0A50065AB0
:101858000B80D8900A320932083207320F2E10EF67
:101868000CF00BC003F00CC004F00DC005F00EC066
:1018780006F01200056E066A9488000E086E000EC7
:10188800076E948600D000D082A84DEF0CF04FEF81
:101898000CF05EEF0CF007500708036E010E046EA3
:1018A800032A59EF0CF0D8900436032E57EF0CF0AA
:1018B80004500612949600D000D0074A082A08BEA1
:1018C8006FEF0CF0085009E1080E075CD8A06FEF25
:1018D8000CF071EF0CF045EF0CF00550D8B477EF31
:1018E8000CF079EF0CF07DEF0CF094988B987EEF6C
:1018F8000CF09488948600D000D09496065012007C
:1019080057A089EF0CF08BEF0CF091EF0CF011C0A1
:101918000BF010C00CF040EC0FF013BE98EF0CF079
:1019280096EF0CF09CEF0CF0000E136E000E126E8A
:10193800000E166E000E156EACEF0CF0000E046E65
:10194800200E036E10C005F043EC0BF0154A162A62
:101958001250155C1650800A146E1350800A1458E1
:10196800D8A0B9EF0CF0BBEF0CF0A2EF0CF057B019
:10197800C0EF0CF0C2EF0CF0C8EF0CF011C00BF088
:1019880010C00CF040EC0FF01200075008100910BE
:101998000A10D8B4D2EF0CF0D4EF0CF004EF0DF02D
:1019A800010E0B6EDEEF0CF0D890073608360936BC
:1019B8000A360B2A0AAEE3EF0CF0E5EF0CF0D8EF8D
:1019C8000CF00750035C08500458095005580A5099
:1019D8000658D8A0F2EF0CF0F4EF0CF0FCEF0CF086
:1019E8000750035E0850045A0950055A0A50065A0F
:1019F800D8900A320932083207320B2EE5EF0CF084
:101A080003C003F004C004F005C005F006C006F0EA
:101A18001200C282C2B213EF0DF015EF0DF00EEFF7
:101A28000DF0C450126E116AC3501124196E000EC5
:101A380012201A6E19C003F01AC004F0056A066A6B
:101A4800F40E076E010E086E000E096E000E0A6E87
:101A5800FAEC0DF003C015F004C016F005C017F03D
:101A680006C018F015C011F016C012F017C013F018
:101A780018C014F00B0E46EF0DF0D8901432133244
:101A880012321132E82E41EF0DF011C00FF012C0E2
:101A980010F01200000E086E000E076E05500610BA
:101AA800D8B459EF0DF05BEF0DF083EF0DF0010E98
:101AB800096E63EF0DF0D89005360636092A06AE92
:101AC80068EF0DF06AEF0DF05FEF0DF0D890073674
:101AD80008360550035C06500458D8A076EF0DF080
:101AE80078EF0DF07DEF0DF00550035E0650045AB7
:101AF8000780D89006320532092E6AEF0DF007C02C
:101B080003F008C004F01200046E04C003F0010ED4
:101B180003168A500318FE0B03188A6E04C003F0DC
:101B2800D8900332010E031603468A500318FD0BA2
:101B380003188A6E04C003F0D8900332D890033299
:101B4800010E0316034603468A500318FB0B0318BD
:101B58008A6E04C003F0D8900332D8900332D8902C
:101B68000332010E03160346034603468A50031840
:101B7800F70B03188A6E7EEC10F01200F00E89162F
:101B88005A506308D96EDA6ADF508C6ED8EF0DF0C0
:101B98008980EBEF0DF08982EBEF0DF08984EBEF94
:101BA8000DF08986EBEF0DF05A50000AD8B4CCEF4F
:101BB8000DF0010AD8B4CFEF0DF0030AD8B4D2EF74
:101BC8000DF0010AD8B4D5EF0DF0EBEF0DF05A2A5D
:101BD800030E5A64F2EF0DF0F4EF0DF0F5EF0DF08F
:101BE8005A6AD768060ED66EF2941200000E0B6E73
:101BF800000E0C6E000E0D6E000E0E6E03A007EFA9
:101C08000EF009EF0EF011EF0EF007500B260850FA
:101C18000C2209500D220A500E22D8900736083699
:101C280009360A36D8900632053204320332035098
:101C3800041005100610D8A424EF0EF026EF0EF0BD
:101C480002EF0EF00BC003F00CC004F00DC005F05D
:101C58000EC006F012000C500D10D8B436EF0EF07E
:101C680038EF0EF05CEF0EF0010E0E6E40EF0EF046
:101C7800D8900C360D360E2A0DAE45EF0EF047EF14
:101C88000EF03CEF0EF00C500A5C0D500B58D8A02B
:101C980050EF0EF052EF0EF056EF0EF00C500A5EB9
:101CA8000D500B5AD8900D320C320E2E47EF0EF015
:101CB8000AC00AF00BC00BF012005AEC10F0D00E5C
:101CC80092EC0EF0000E92EC0EF006EC10F05AECCE
:101CD80010F0D10E92EC0EF00950D96EDA6A010EAE
:101CE8003EEC0CF073EC10F0DF6E0950D96EDA6A36
:101CF800010ED926010E3EEC0CF073EC10F0DF6EED
:101D08000950D96EDA6A020ED926000E3EEC0CF0A4
:101D180073EC10F0DF6E06EC10F01200036E000E8C
:101D2800056E000E046E03AE9CEF0EF09EEF0EF0F3
:101D3800A1EF0EF09488A3EF0EF094988B9800D042
:101D480000D0948600D000D09496D8900336044AE8
:101D5800052A05BEB9EF0EF0055009E1080E045C2E
:101D6800D8A0B9EF0EF0BBEF0EF097EF0EF0948805
:101D780000D000D0948600D000D094961200D9EFFD
:101D88000EF006C0F6FF07C0F7FFF86A050EF76405
:101D980003D00800F55005D0F6CFE1FFF7CFE2FFFA
:101DA800E7504CEC10F0064A072A06C0F6FF07C0B9
:101DB800F7FFF86A050EF76403D00800F55005D060
:101DC800F6CFE1FFF7CFE2FFE7500009D8A4EFEF25
:101DD8000EF0F1EF0EF0C5EF0EF01200936A8A983C
:101DE8008A9A340E086EF20EE82EFED7082EFCD71B
:101DF800030E88EC0DF00D0E086EFC0EE82EFED7D3
:101E0800082EFCD7030E88EC0DF0640EE82EFED7E2
:101E1800030E88EC0DF0020E88EC0DF0280E19EC7C
:101E280010F00C0E19EC10F0060E19EC10F067EC1F
:101E380010F0120030C033F031C034F02DEF0FF045
:101E48002FC022F0330E236E32C024F0256A59ECDD
:101E580003F033C0F6FF34C0F7FF0800F55000095F
:101E6800D8A439EF0FF03BEF0FF024EF0FF0000E7E
:101E7800306E000E2F6E1200000E0F6E000E0E6EEA
:101E88004FEF0FF00DC003F0046A0CC005F043ECEF
:101E98000BF00E4A0F2A0B500E24D96EDA6ADF5067
:101EA8000D6E0D50D8A45BEF0FF05DEF0FF046EF0D
:101EB8000FF01200480EF66E210EF76E000EF86E47
:101EC8000900F5CF5CF000EE60F0450EEE6AE8061A
:101ED800FDE100EE4BF0110EEE6AE806FDE15D90C3
:101EE8005D92000EF86E00014AEF07F0380E3E6E64
:101EF80035C03FF0000E426E000E416E000E496E76
:101F0800000E486E3F0E2F6E36C030F037C031F0ED
:101F18003E0E326E1EEC0FF035504124D96EDA6A4F
:101F2800DF6A12000ABE9BEF0FF09DEF0FF0A3EFE0
:101F38000FF009C009F00AC00AF0AFEF0FF009C0AE
:101F48000BF00AC00CF00B1E0C1E0B4A0C2A0BC01F
:101F580009F00CC00AF01200046E04C0A9FF03C007
:101F6800A8FFA69EA69CA684F29E550EA76EAA0E52
:101F7800A76EA682A6B2C3EF0FF0C5EF0FF0BEEFB3
:101F88000FF0F28EA69412000F013C953C833C9111
:101F9800C250830B1809C26EF30EC116FC0EC1168F
:101FA800C050C70B2009C06EC050F80B0209C06EA4
:101FB800C2801200086E0804D8A4E5EF0FF0E7EF1E
:101FC8000FF0ECEF0FF00750800F096EEFEF0FF0F6
:101FD8000750C00F096E095019EC10F01200956AED
:101FE800F00E9216F00E89168C6AD59CD59AD59665
:101FF800D550F80B0309D56ED768060ED66EF28A4F
:10200800D58E120094968B9694988B98030EE82E92
:10201800FED700009486030EE82EFED700009488B1
:10202800030EE82EFED700001200066E8A980638C6
:102038000F0B88EC0DF0065088EC0DF0060E056EBF
:10204800300EE82EFED7052EFCD700D012000F0167
:102058003A9594948B94070EBA6EBB6A310ECD6E86
:10206800000ECF6E000ECE6E9E909D90596A1200A3
:10207800BA949D928B94596A000E516E000E526E5E
:10208800586A000E506E000E4F6ECD909D90120053
:10209800056E8A8805380F0B88EC0DF0055088EC22
:1020A8000DF0210EE82EFED70000120094988B98B0
:1020B800030EE82EFED7000094968B96030EE82EAA
:1020C800FED700001200010E19EC10F0060E076E84
:1020D800300EE82EFED7072EFCD700D01200046E73
:1020E80004C003F00F0E031604380F0B0A0DF3504B
:1020F800032412008A8A210EE82EFED700008A9A4D
:10210800210EE82EFED70000120094809482948459
:10211800948A0F013A6B949C8B9C1200036E03C047
:10212800A9FFA69EA69CA680A85012009486948813
:102138000F013A973A9912009AEC10F01200120027
:01214800FF97
:107EE600003F065B4F666D7D077F6FF401F401F47A
:107EF60001E803B004E803F77EF17E0354696D657B
:107F06003A20253032643A253032643A25303264DC
:107F1600202000253032643A25303264202020208B
:107F26002020202020202000543A2530326420488A
:107F36003A257320413A2573200053656C656374B6
:107F460020546F6E653A202020200053657420541B
:107F5600656D70204C4F573A20202000416C6172AD
:107F66006D3A204F4E2F4F46462020200053657411
:107F76002054656D7020484947483A2020004865DE
:107F8600617420456E642054696D653A2020005363
:107F96006176652053657474696E67733F202000AF
:107FA60055503D59657320444F574E3D4E6F202026
:107FB60000486561742053746172742054696D655C
:107FC6003A0025642043202020202020202000285D
:107FD6006E756C6C290053617665642100546F6E72
:107FE60065204100546F6E652042004F4E20004FC1
:0A7FF6004646002D2D004F4E0000FE
:020000040030CA
:06000000FF281E3CFFBDBD
:00000001FF
