:040000001EEF00F0FF
:100008005D82D9CF01F0DACF02F0F2A40EEF00F052
:1000180010EF00F018EF00F07DEC10F0010E49260B
:10002800000E4A224B224C2202C0DAFF01C0D9FF3F
:080038005D9211001BEF12F0B4
:10060000003F065B4F666D7D077F6F253032643A91
:100610002530326420253032642F253032642F2576
:100620006400253032643A253032642020202020B6
:1006300020202020202000543A2530326420483ADF
:10064000257320413A257320005365742054656D4D
:1006500070204C4F573A2020200053657420546579
:100660006D7020484947483A202000486561742051
:10067000456E642054696D653A20200053617665AB
:100680002053657474696E67733F20200055503D98
:1006900059657320444F574E3D4E6F2020004865EA
:1006A00061742053746172742054696D653A002539
:1006B000642043202020202020202000286E756CFC
:1006C0006C2900536176656421004F4E20004F462F
:0906D00046002D2D004F4E0000E4
:1006DA0083EC0BF0116E1150D8A476EF03F078EF8B
:1006EA0003F07AEF03F0B0EF04F05450D8B480EF7F
:1006FA0003F082EF03F08AEF04F0546AB0EF04F0DB
:10070A00030E1118D8A48CEF03F08EEF03F0B0EFAC
:10071A0004F0010E766FB0EF04F01104D8A498EF3C
:10072A0003F09AEF03F09BEF03F0972B020E1118D8
:10073A00D8A4A2EF03F0A4EF03F0A5EF03F0970704
:10074A00030E1118D8A4ACEF03F0AEEF03F0B0EF2C
:10075A0004F0020E766FB0EF04F01104D8A4B8EFDB
:10076A0003F0BAEF03F0BBEF03F0982B020E111857
:10077A00D8A4C2EF03F0C4EF03F0C5EF03F0980763
:10078A00030E1118D8A4CCEF03F0CEEF03F0D0EF8C
:10079A0003F0030E766F040E1118D8A4D7EF03F0F6
:1007AA00D9EF03F0B0EF04F08EEF03F0020E111848
:1007BA00D8A4E2EF03F0E4EF03F0E5EF03F0992B9E
:1007CA001104D8A4EBEF03F0EDEF03F0EFEF03F021
:1007DA000F0E9A273B0E9A65F5EF03F0F7EF03F039
:1007EA00F8EF03F09A6B170E9965FEEF03F000EF2E
:1007FA0004F001EF04F0996B030E1118D8A408EF66
:10080A0004F00AEF04F00CEF04F0040E766F040E05
:10081A001118D8A413EF04F015EF04F0B0EF04F0A8
:10082A00AEEF03F0020E1118D8A41EEF04F020EF69
:10083A0004F021EF04F09B2B1104D8A427EF04F055
:10084A0029EF04F02BEF04F00F0E9C273B0E9C655A
:10085A0031EF04F033EF04F034EF04F09C6B170E21
:10086A009B653AEF04F03CEF04F03DEF04F09B6B1C
:10087A00030E1118D8A444EF04F046EF04F048EF31
:10088A0004F0070E766F040E1118D8A44FEF04F087
:10089A0051EF04F0B0EF04F0030E766FB0EF04F0FE
:1008AA001104D8A45BEF04F05DEF04F07EEF04F0CE
:1008BA00970E0E6E86EC0AF036EC13F0000E076EF9
:1008CA00010ECBEC12F0C30E066E0650D8A4060E2B
:1008DA00076E1CEC11F00B0E106E260E0F6E5E0EDC
:1008EA00E82EFED70F2EFCD7102EFAD70001766B12
:1008FA00B969020E1118D8A485EF04F087EF04F045
:10090A00B0EF04F0766BB0EF04F0000176510F6E91
:10091A00106A1050000AD8B495EF04F0B0EF04F052
:10092A000F50000AD8B485EF03F0010AD8B492EF49
:10093A0003F0030AD8B4B2EF03F0010AD8B4DBEF2C
:10094A0003F0070AD8B417EF04F0030AD8B455EF36
:10095A0004F0B0EF04F012000001B9517619D8B4CE
:10096A00B9EF04F0BBEF04F0B5EF05F036EC13F085
:10097A0076C0B9F0B5EF05F0A60E316E0B0E326EE9
:10098A0058C033F0346A57C035F0366AA1C037F020
:10099A00386AA2C039F03A6AA3C03BF03C6A37EC25
:1009AA0012F0000E076E010ECBEC12F0A60E066EC8
:1009BA00076A1CEC11F000019F51D8A4E7EF04F07C
:1009CA00E9EF04F0EDEF04F0D20EB76FEFEF04F0A9
:1009DA00D50EB76F5550D8A4F5EF04F0F7EF04F031
:1009EA00FBEF04F0CE0EB86FFDEF04F0CA0EB86F3D
:1009FA00A60E316E370E326E4FC033F050C034F04F
:100A0A00B8C035F03550D8A4060E366EB7C037F0E8
:100A1A003750D8A4060E386E37EC12F0000E076E67
:100A2A00020ECBEC12F0A60E066E076A1CEC11F051
:100A3A00DBEF05F0000E076E010ECBEC12F0490E4B
:100A4A00066E0650D8A4060E076E1CEC11F0A60E10
:100A5A00316EAF0E326E97C033F0346A37EC12F053
:100A6A00000E076E020ECBEC12F018EF05F0000E26
:100A7A00076E010ECBEC12F05A0E066E0650D8A481
:100A8A00060E076E1CEC11F0A60E316EAF0E326E1A
:100A9A0098C033F0346A37EC12F0000E076E020E7B
:100AAA00CBEC12F018EF05F0000E076E010ECBEC3E
:100ABA0012F09E0E066E0650D8A4060E076E1CECA7
:100ACA0011F0A60E316E220E326E99C033F0346ADE
:100ADA009AC035F0366A37EC12F0000E076E020E35
:100AEA00CBEC12F018EF05F0000E076E010ECBECFE
:100AFA0012F06B0E066E0650D8A4060E076E1CEC9A
:100B0A0011F0A60E316E220E326E9BC033F0346A9B
:100B1A009CC035F0366A37EC12F0000E076E020EF2
:100B2A00CBEC12F018EF05F0000E076E010ECBECBD
:100B3A0012F07C0E066E0650D8A4060E076E1CEC48
:100B4A0011F0000E076E020ECBEC12F08D0E066E3F
:100B5A000650D8A4060E076E1CEC11F0DBEF05F068
:100B6A0000017651A46FA56BA551000AD8B4C0EF55
:100B7A0005F0DBEF05F0A451000AD8B4C1EF04F088
:100B8A00010AD8B41FEF05F0030AD8B43CEF05F008
:100B9A00010AD8B459EF05F0070AD8B479EF05F07D
:100BAA00030AD8B499EF05F0DBEF05F012002350E1
:100BBA00D96EDA6ADFCFF6FF060EF76E0800F55037
:100BCA00250AD8A4EBEF05F0EDEF05F0EFEF06F0FC
:100BDA002350D96EDA6ADF2A000E4E6E000E4D6E71
:100BEA004DC051F000016C696D692C6A17EF06F06F
:100BFA0051822350D96EDA6ADF2A17EF06F0010E06
:100C0A002C6E17EF06F02350D96EDA6ADFCFF6FFA3
:100C1A00060EF76E0800F550300AD8B4FDEF05F05D
:100C2A0004EF06F02C50D8B41DEF06F01FEF06F0C3
:100C3A0008EF06F023C003F024C004F063EC0DF0C3
:100C4A0003C04DF004C04EF04EBE30EF06F02EEF5A
:100C5A0006F035EF06F051804D6C4E1ED8B04E2A84
:100C6A002350D96EDA6ADF502B6E2BC0F6FF060EC0
:100C7A00F76E0800F550640AD8B446EF06F048EF5C
:100C8A0006F056EF06F02BC0F6FF060EF76E0800C8
:100C9A00F550690AD8A454EF06F056EF06F072EF41
:100CAA0006F024C0D9FF25C0DAFF020EDF26DF5C7A
:100CBA00D96EDA6ADECF27F0DECF28F02350D96E5C
:100CCA00DA6A2B28DF6E22C017F027C018F028C076
:100CDA0019F08CEC08F000EF07F02C6A2350D96E5B
:100CEA00DA6ADFCFF6FF060EF76E0800F550730AD0
:100CFA00D8A482EF06F084EF06F08CEF06F02350BA
:100D0A00D96EDA6ADF2A010E2C6ECEEF06F0235076
:100D1A00D96EDA6ADFCFF6FF060EF76E0800F550D5
:100D2A006C0AD8A49BEF06F09DEF06F0CEEF06F012
:100D3A002350D96EDA6ADF50266E010E262626C0A7
:100D4A00F6FF060EF76E0800F5506C0AD8A4B0EF4D
:100D5A0006F0B2EF06F0CEEF06F02350D96EDA6A4B
:100D6A00DF50266E020E262626C0F6FF060EF76E06
:100D7A000800F550730AD8A4C5EF06F0C7EF06F0CD
:100D8A00CEEF06F02350D96EDA6A030EDF2688EF1B
:100D9A0006F02C50D8B4D4EF06F0D6EF06F0E9EFFF
:100DAA0006F022C00BF024C0D9FF25C0DAFF020EDC
:100DBA00DF26DF5CD96EDA6ADECF0CF0DECF0DF00B
:100DCA003EEC09F000EF07F02350D96EDA6ADF2A09
:100DDA0000EF07F02350D96EDA6ADFCFF6FF060E6E
:100DEA00F76E0800F550036E046A22C005F00EEC97
:100DFA000DF0E9EF06F01200000E076E000E066E07
:100E0A0077EC11F0106EA50E1018D8B40FEF07F09A
:100E1A0011EF07F058EF07F00F50D96EDA6A160E85
:100E2A00DF6E0F50D96EDA6A010ED9261A0EDF6EFE
:100E3A000F50D96EDA6A020ED926060EDF6E0F50EF
:100E4A00D96EDA6A030ED9261E0EDF6E0F50D96EDE
:100E5A00DA6A040ED926080EDF6E0F50D96EDA6AE6
:100E6A00050ED926DF6A0F50D96EDA6A060ED92620
:100E7A00070EDF6E0F50D96EDA6A070ED926DF6ABF
:100E8A000F50D96EDA6A080ED926010EDF6E0F509E
:100E9A00D96EDA6A090ED926DF6A0FC00EF086EC1F
:100EAA000AF0CEEF07F00F50D96EDA6A000E076E1D
:100EBA00010E066E77EC11F0DF6E0F50D96EDA6A0A
:100ECA00010ED926000E076E020E066E77EC11F09F
:100EDA00DF6E0F50D96EDA6A020ED926000E076E3F
:100EEA00030E066E77EC11F0DF6E0F50D96EDA6AD8
:100EFA00030ED926000E076E040E066E77EC11F06B
:100F0A00DF6E0F50D96EDA6A040ED926000E076E0C
:100F1A00050E066E77EC11F0DF6E0F50D96EDA6AA5
:100F2A00050ED926000E076E060E066E77EC11F036
:100F3A00DF6E0F50D96EDA6A060ED926000E076EDA
:100F4A00070E066E77EC11F0DF6E0F50D96EDA6A73
:100F5A00070ED926000E076E080E066E77EC11F002
:100F6A00DF6E0F50D96EDA6A080ED926000E076EA8
:100F7A00090E066E77EC11F0DF6E0F50D96EDA6A41
:100F8A00090ED926000E076E0A0E066E77EC11F0CE
:100F9A00DF6E1200660ED36EFC0ED3160F013C6B89
:100FAA009690B5EC12F0E0EC12F04BEC11F0A00EBA
:100FBA00106E860E116E010E126E000E136E56EC36
:100FCA000CF090EC13F079EC13F0970E0F6E01EC25
:100FDA0007F0F28CF28E560E106E9BEC11F0A10EF9
:100FEA00106EBCEC11F049C003F04AC004F04BC0CB
:100FFA0005F04CC006F0640E076E000E086E000E77
:10100A00096E000E0A6E7BEC0FF0035004100510F7
:10101A000610D8A413EF08F015EF08F021EF08F036
:10102A00EEEC0EF00FC04FF010C050F04FC00FF0B2
:10103A0050C010F00FEC0BF049C003F04AC004F0A6
:10104A004BC005F04CC006F0F40E076E010E086E98
:10105A00000E096E000E0A6E7BEC0FF003500410AE
:10106A0005100610D8A43CEF08F03EEF08F042EF56
:10107A0008F0560E106E9BEC11F049C003F04AC0FE
:10108A0004F04BC005F04CC006F0E00E076E930E5C
:10109A00086E040E096E000E0A6E7BEC0FF0035008
:1010AA00041005100610D8A45DEF08F05FEF08F0F1
:1010BA0063EF08F0A10E106EBCEC11F0EDEC09F034
:1010CA00A3EC0EF06DEC03F049C003F04AC004F043
:1010DA004BC005F04CC006F0320E076E000E086ECB
:1010EA00000E096E000E0A6E7BEC0FF0035004101E
:1010FA0005100610D8A484EF08F086EF08F0F8EF80
:10110A0007F0B1EC04F0F8EF07F01EEF00F0010E63
:10111A001C6E19BE93EF08F096EF08F0010E97EFD8
:10112A0008F0000E1F6E4DC01DF04EC01EF01F507D
:10113A00D8B4A2EF08F0A4EF08F0BBEF08F01D0640
:10114A00D8A01E061F50D8A4ADEF08F0AFEF08F0E4
:10115A00B5EF08F0000E1B6E2B0E1A6EB9EF08F0F1
:10116A00000E1B6E2D0E1A6E1AC01FF0000E216E95
:10117A001F0E206E0001966BEFEF08F02006D8A034
:10118A0021062050770FD96EDA6A18C003F019C009
:10119A0004F0000E066E0A0E056EB7EC0CF003C0E2
:1011AA0009F004C00AF051EC12F00950300FDF6E5A
:1011BA001C6A1D06D8A01E0618C003F019C004F048
:1011CA00000E066E0A0E056EF5EC0BF003C018F061
:1011DA0004C019F021BEFAEF08F0215008E12004FA
:1011EA00D8A0FAEF08F0FCEF08F021EF09F0185048
:1011FA001910D8A403EF09F005EF09F0C3EF08F0BE
:10120A001C50D8A40BEF09F00DEF09F0C3EF08F05A
:10121A001EBE18EF09F01E5008E11D04D8A018EFF1
:10122A0009F01AEF09F021EF09F051B21FEF09F0A6
:10123A0021EF09F0C3EF08F01F50D8B427EF09F0E7
:10124A0029EF09F032EF09F02006D8A02106205034
:10125A00770FD96EDA6A1FC0DFFF17C010F020506F
:10126A00770F116E1DC012F01EC013F036EC0FF08E
:10127A0012000CC014F00DC015F014501510D8A4AB
:10128A0049EF09F04BEF09F051EF09F0BC0E146E6B
:10129A001450D8A4060E156E000E176E000E166EA8
:1012AA0059EF09F0164A172A165014240E6E1750D1
:1012BA0015200F6E0EC0F6FF0FC0F7FFF86A050E75
:1012CA00F76403D00800F55005D0F6CFE9FFF7CF51
:1012DA00EAFFEF500009D8A475EF09F077EF09F09B
:1012EA0057EF09F016C010F017C011F04DC012F0F8
:1012FA004EC013F051B084EF09F086EF09F0BDEF4C
:10130A0009F092EF09F0000E046E200E036E0BC076
:10131A0005F00EEC0DF0164A172A1250165C1750FB
:10132A00800A0E6E1350800A0E58D8A09FEF09F05B
:10133A00A1EF09F088EF09F0BDEF09F014C0F6FF3C
:10134A0015C0F7FFF86A050EF76403D00800F550D8
:10135A0005D0F6CFE9FFF7CFEAFFEF500E6E0E5039
:10136A00036E046A0BC005F00EEC0DF0144A152A40
:10137A001006D8A01106102806E11128D8A4C8EF33
:10138A0009F0CAEF09F0A3EF09F051A0CFEF09F075
:10139A00D1EF09F0ECEF09F0DDEF09F0000E046E71
:1013AA00200E036E0BC005F00EEC0DF0164A172A3C
:1013BA001250165C1750800A0E6E1350800A0E588F
:1013CA00D8A0EAEF09F0ECEF09F0D3EF09F0120028
:1013DA0058503C0DF3CF0AF0F4CF0BF057500A24C3
:1013EA00106E000E0B20116E000199513C0DF3CFC7
:1013FA000AF0F4CF0BF09A510A240C6E000E0B205F
:10140A000D6E9B513C0DF3CF0AF0F4CF0BF09C51BB
:10141A000A240E6E000E0B200F6E0E500C5C0F503D
:10142A000D58D8B01BEF0AF01DEF0AF035EF0AF09D
:10143A000C50105C0D501158D8A026EF0AF028EF76
:10144A000AF04DEF0AF00E50105C0F501158D8B048
:10145A0031EF0AF033EF0AF04DEF0AF04DEF0AF0E0
:10146A000C50105C0D501158D8B03EEF0AF040EF06
:10147A000AF033EF0AF00E50105C0F501158D8B032
:10148A0049EF0AF04BEF0AF04DEF0AF033EF0AF09A
:10149A004FC003F050C004F0000E066E640E056ED5
:1014AA0043EC10F000019751035C000E0458D8B0C9
:1014BA0061EF0AF063EF0AF067EF0AF0010E556E6A
:1014CA0080EF0AF098510A6E0B6A4FC003F050C0C1
:1014DA0004F0000E066E640E056E43EC10F00A501E
:1014EA00035C0B500458D8A07DEF0AF07FEF0AF096
:1014FA0080EF0AF0556A55B002D08D9001D08D80E8
:10150A001200000E076E000E066EA50E086E01ECA4
:10151A0010F0000E076E010E066E0E50D96EDA6AD2
:10152A00DF50086E01EC10F0000E076E020E066E18
:10153A000E50D96EDA6A010ED926DF50086E01EC18
:10154A0010F0000E076E030E066E0E50D96EDA6AA0
:10155A00020ED926DF50086E01EC10F0000E076E5D
:10156A00040E066E0E50D96EDA6A030ED926DF50C3
:10157A00086E01EC10F0000E076E050E066E0E5096
:10158A00D96EDA6A040ED926DF50086E01EC10F023
:10159A00000E076E060E066E0E50D96EDA6A050E3A
:1015AA00D926DF50086E01EC10F0000E076E070E08
:1015BA00066E0E50D96EDA6A060ED926DF50086E0C
:1015CA0001EC10F0000E076E080E066E0E50D96E72
:1015DA00DA6A070ED926DF50086E01EC10F0000E09
:1015EA00076E090E066E0E50D96EDA6A080ED926F3
:1015FA00DF50086E01EC10F0000E076E0A0E066E40
:10160A000E50D96EDA6A090ED926DF50086E01EC3F
:10161A0010F01200100E0F5C270E1058D8A018EF09
:10162A000BF01AEF0BF01EEF0BF0270E106E0F0ED9
:10163A000F6E0FC003F010C004F0030E066EE80E22
:10164A00056E43EC10F00350010F116E11C0F6FF46
:10165A00060EF76E0800F5CF60F0000E066E640EF7
:10166A00056E0FC003F010C004F043EC10F003C085
:10167A000AF004C00BF0000E0D6E0A0E0C6EEAECB6
:10168A0010F00A50010F116E11C0F6FF060EF76E28
:10169A000800F5CF61F0000E066E0A0E056E0FC047
:1016AA0003F010C004F043EC10F003C00AF004C0C9
:1016BA000BF0000E0D6E0A0E0C6EEAEC10F00A50DA
:1016CA00010F116E11C0F6FF060EF76E0800F5CF76
:1016DA0062F00FC00AF010C00BF0000E0D6E0A0E79
:1016EA000C6EEAEC10F00A50010F116E11C0F6FFF1
:1016FA00060EF76E0800F5CF63F0120082B088EF8D
:10170A000BF08CEF0BF00A6A0A2A8DEF0BF00A6ACB
:10171A000A50036E046A5C0E056E07EC0EF00009AF
:10172A00D8B49AEF0BF09CEF0BF09FEF0BF0010E81
:10173A00F4EF0BF082B2A4EF0BF0A8EF0BF00A6AF9
:10174A000A2AA9EF0BF00A6A0A50036E046A5B0EB2
:10175A00056E07EC0EF00009D8B4B6EF0BF0B8EF3F
:10176A000BF0BBEF0BF0020EF4EF0BF082B4C0EFFC
:10177A000BF0C4EF0BF00A6A0A2AC5EF0BF00A6AEB
:10178A000A50036E046A5A0E056E07EC0EF0000941
:10179A00D8B4D2EF0BF0D4EF0BF0D7EF0BF0030E67
:1017AA00F4EF0BF082BADCEF0BF0E0EF0BF00A6A11
:1017BA000A2AE1EF0BF00A6A0A50036E046A590E0C
:1017CA00056E07EC0EF00009D8B4EEEF0BF0F0EF5F
:1017DA000BF0F3EF0BF0040EF4EF0BF0000E120017
:1017EA00086A06BEFDEF0BF0FBEF0BF003EF0CF0FF
:1017FA00056C061ED8B0062A010E086E04BE0AEF52
:10180A000CF008EF0CF010EF0CF0036C041ED8B0CB
:10181A00042A010E081A000E0A6E000E096E0550FF
:10182A000610D8B41BEF0CF01DEF0CF045EF0CF0CE
:10183A00010E076E25EF0CF0D89005360636072AFA
:10184A0006AE2AEF0CF02CEF0CF021EF0CF0D8903A
:10185A0009360A360550035C06500458D8A038EFFA
:10186A000CF03AEF0CF03FEF0CF00550035E065017
:10187A00045A0980D89006320532072E2CEF0CF054
:10188A000850D8B44BEF0CF04DEF0CF051EF0CF0C0
:10189A00096C0A1ED8B00A2A09C003F00AC004F06B
:1018AA001200E70E0F013A17180E94121050111079
:1018BA0012101310D8A464EF0CF066EF0CF06EEF60
:1018CA000CF0A00E106E860E116E010E126E000E36
:1018DA00136E000E036E120E046E7A0E056E000E63
:1018EA00066E10C014F011C015F012C016F013C025
:1018FA0017F0020ED8901436153616361736E82E1B
:10190A007FEF0CF014C007F015C008F016C009F0FC
:10191A0017C00AF0B5EC0DF0FF0E0324186EFF0E87
:10192A000420196EFF0E05201A6EFF0E06201B6E8C
:10193A001B501A1008E11904D8A0A6EF0CF0A8EF62
:10194A000CF0B0EF0CF0FF0E186E000E196E000EC0
:10195A001A6E000E1B6E18C0C8FF800EC76E280EC6
:10196A00C66E1200086A04BEBFEF0CF0BDEF0CF0A1
:10197A00C5EF0CF0036C041ED8B0042A010E086EE1
:10198A0006BECCEF0CF0CAEF0CF0D0EF0CF0056CF1
:10199A00061ED8B0062A05500610D8B4D7EF0CF0A8
:1019AA00D9EF0CF0FDEF0CF0010E076EE1EF0CF031
:1019BA00D89005360636072A06AEE6EF0CF0E8EFB1
:1019CA000CF0DDEF0CF00550035C06500458D8A06B
:1019DA00F1EF0CF0F3EF0CF0F7EF0CF00550035EAB
:1019EA000650045AD89006320532072EE8EF0CF05A
:1019FA000850D8B403EF0DF005EF0DF009EF0DF024
:101A0A00036C041ED8B0042A03C003F004C004F017
:101A1A0012000550D8B414EF0DF016EF0DF01EEFBA
:101A2A000DF00550D8A41CEF0DF01EEF0DF023EFBA
:101A3A000DF0035093EC13F062EF0DF00550D96EE0
:101A4A00DA6A090ED926DE50DE10D8B42FEF0DF06F
:101A5A0031EF0DF04AEF0DF00550D96EDA6A090E32
:101A6A00D9260550E16EE26A020EE126DE50E65CF6
:101A7A00E650800A0A6EDE50800A0A58D8B048EF4B
:101A8A000DF04AEF0DF062EF0DF00550D96EDA6AEB
:101A9A00020ED926DF50066E0550D96EDA6ADF507B
:101AAA000624D96EDA6A03C0DFFF0550D96EDA6AF6
:101ABA00020ED926DE2A000EDD221200000E096E61
:101ACA00000E086E0350D96EDA6ADFCFF6FF060EF3
:101ADA00F76E0800F5502A0AD8A476EF0DF078EFD1
:101AEA000DF09DEF0DF00350D96EDA6ADF2A04502B
:101AFA00D96EDA6A020EDF26DF5CD96EDA6ADECFC9
:101B0A0008F0DECF09F0B0EF0DF00A0E0802F3CFAD
:101B1A0005F0F4CF06F00902F35006260750052413
:101B2A00086E000E0620096E0350D96EDA6ADF2AA3
:101B3A000350D96EDA6ADFCFF6FF060EF76E080099
:101B4A00F550D00F076E090E0764AEEF0DF0B0EF37
:101B5A000DF08AEF0DF008C003F009C004F012007E
:101B6A00000E0B6E000E0C6E000E0D6E000E0E6E49
:101B7A000750081009100A10D8B4C6EF0DF0C8EFC4
:101B8A000DF0FEEF0DF0010E0F6ED2EF0DF0D890B2
:101B9A000736083609360A360F2A0AAED7EF0DF08D
:101BAA00D9EF0DF0CCEF0DF0D8900B360C360D3680
:101BBA000E360750035C08500458095005580A505D
:101BCA000658D8A0EBEF0DF0EDEF0DF0F6EF0DF0A3
:101BDA000750035E0850045A0950055A0A50065A1B
:101BEA000B80D8900A320932083207320F2ED9EF09
:101BFA000DF00BC003F00CC004F00DC005F00EC0D0
:101C0A0006F0120000016451495C066E65514A589B
:101C1A00076E66514B58086E67514C58096E095049
:101C2A000810071007E10A0E065CD8B01FEF0EF085
:101C3A0021EF0EF024EF0EF0000E57EF0EF00350D6
:101C4A000410D8B42BEF0EF02DEF0EF051EF0EF07A
:101C5A000550D96EDA6ADF50D8A436EF0EF038EFA5
:101C6A000EF021EF0EF003500410D8B43FEF0EF03F
:101C7A0041EF0EF021EF0EF00550D96EDA6A010E2F
:101C8A00DF6E49C064F04AC065F04BC066F04CC0D4
:101C9A0067F0010E57EF0EF00550D96EDA6ADF6A67
:101CAA0021EF0EF012000C6E6EEC13F0640E9DEC38
:101CBA0012F00C38F00B9DEC12F058EC13F0650E94
:101CCA009DEC12F00F6A97EF0EF0FF0E0624076ED6
:101CDA00086AFF0E08220F50096E0A6A0750095C4B
:101CEA000A50800A0B6E0850800A0B58D8A080EF61
:101CFA000EF082EF0EF08AEF0EF084EC12F0076E0F
:101D0A0007500D6E0E6A90EF0EF06BEC12F0076E34
:101D1A0007500D6E0E6A05500F24D96EDA6A0DC08F
:101D2A00DFFF0F2A06500F5CD8A09EEF0EF0A0EF3F
:101D3A000EF06AEF0EF063EC13F0120000019F51EF
:101D4A00D8A4AAEF0EF0ACEF0EF0AEEF0EF0EDEF66
:101D5A000EF09D515818D8A4B5EF0EF0B7EF0EF05B
:101D6A00CAEF0EF09E515718D8A4BEEF0EF0C0EF7E
:101D7A000EF0CAEF0EF05650D8A4C6EF0EF0C8EF18
:101D8A000EF0CAEF0EF0010E546E5450D8B4D0EFD4
:101D9A000EF0D2EF0EF0EDEF0EF049C003F04AC09C
:101DAA0004F04BC005F04CC006F0C80E076E000EDA
:101DBA00086E000E096E000E0A6E7BEC0FF0050E1F
:101DCA005664EAEF0EF0ECEF0EF0EDEF0EF0546A07
:101DDA001200C282030E116E980EE82EFED7112E43
:101DEA00FCD7C2B2FBEF0EF0FDEF0EF0F6EF0EF0ED
:101DFA00C450126E116AC3501124196E000E1220BB
:101E0A001A6E19C003F01AC004F0056A066AF40EC5
:101E1A00076E010E086E000E096E000E0A6EB5EC12
:101E2A0010F003C015F004C016F005C017F006C084
:101E3A0018F015C011F016C012F017C013F018C030
:101E4A0014F00B0E2EEF0FF0D89014321332123218
:101E5A001132E82E29EF0FF011C00FF012C010F066
:101E6A00120051A03BEF0FF03DEF0FF043EF0FF0E0
:101E7A0011C00BF010C00CF0FDEC11F013BE4AEFCC
:101E8A000FF048EF0FF04EEF0FF0000E136E000E3A
:101E9A00126E000E166E000E156E5EEF0FF0000E3B
:101EAA00046E200E036E10C005F00EEC0DF0154AFC
:101EBA00162A1250155C1650800A146E1350800AA6
:101ECA001458D8A06BEF0FF06DEF0FF054EF0FF02E
:101EDA0051B072EF0FF074EF0FF07AEF0FF011C0FC
:101EEA000BF010C00CF0FDEC11F0120007500810B6
:101EFA0009100A10D8B484EF0FF086EF0FF0B6EF8E
:101F0A000FF0010E0B6E90EF0FF0D89007360836DF
:101F1A0009360A360B2A0AAE95EF0FF097EF0FF043
:101F2A008AEF0FF00750035C08500458095005580F
:101F3A000A500658D8A0A4EF0FF0A6EF0FF0AEEFA4
:101F4A000FF00750035E0850045A0950055A0A5008
:101F5A00065AD8900A320932083207320B2E97EF06
:101F6A000FF003C003F004C004F005C005F006C07A
:101F7A0006F01200046E04C003F0010E03168A5024
:101F8A000318FE0B03188A6E04C003F0D8900332BC
:101F9A00010E031603468A500318FD0B03188A6EB6
:101FAA0004C003F0D8900332D8900332010E03160E
:101FBA00034603468A500318FB0B03188A6E04C0B3
:101FCA0003F0D8900332D8900332D8900332010E2E
:101FDA0003160346034603468A500318F70B0318F1
:101FEA008A6E8A8A210EE82EFED700008A9A210E6E
:101FFA00E82EFED70000120006C003F007C004F066
:10200A0089EC13F00D6E06C00CF0000E0B6E000E7C
:10201A000A6E6EEC13F00D509DEC12F00C509DEC14
:10202A0012F008509DEC12F063EC13F06EEC13F012
:10203A000D509DEC12F00009D8B426EF10F028EFED
:10204A0010F02CEF10F063EC13F042EF10F063EC99
:10205A0013F0030E096E980EE82EFED7092EFCD750
:10206A000A4A0B2A0B5009E10F0E0A5CD8A040EF6E
:10207A0010F042EF10F01BEF10F01200000E086E85
:10208A00000E076E05500610D8B44EEF10F050EF50
:10209A0010F078EF10F0010E096E58EF10F0D8909A
:1020AA0005360636092A06AE5DEF10F05FEF10F02E
:1020BA0054EF10F0D890073608360550035C0650E6
:1020CA000458D8A06BEF10F06DEF10F072EF10F01B
:1020DA000550035E0650045A0780D890063205322E
:1020EA00092E5FEF10F007C003F008C004F01200D9
:1020FA00F00E891652506308D96EDA6ADF508C6E78
:10210A0093EF10F08980A6EF10F08982A6EF10F005
:10211A008984A6EF10F08986A6EF10F05250000AC3
:10212A00D8B487EF10F0010AD8B48AEF10F0030A86
:10213A00D8B48DEF10F0010AD8B490EF10F0A6EFE2
:10214A0010F0522A030E5264ADEF10F0AFEF10F008
:10215A00B0EF10F0526AD768060ED66EF2941200EB
:10216A00000E0B6E000E0C6E000E0D6E000E0E6E43
:10217A0003A0C2EF10F0C4EF10F0CCEF10F007503C
:10218A000B2608500C2209500D220A500E22D89014
:10219A000736083609360A36D8900632053204322E
:1021AA0003320350041005100610D8A4DFEF10F014
:1021BA00E1EF10F0BDEF10F00BC003F00CC004F01B
:1021CA000DC005F00EC006F012000C500D10D8B468
:1021DA00F1EF10F0F3EF10F017EF11F0010E0E6EA1
:1021EA00FBEF10F0D8900C360D360E2A0DAE00EF2C
:1021FA0011F002EF11F0F7EF10F00C500A5C0D50DD
:10220A000B58D8A00BEF11F00DEF11F011EF11F0F0
:10221A000C500A5E0D500B5AD8900D320C320E2E0D
:10222A0002EF11F00AC00AF00BC00BF0120032EFF5
:10223A0011F006C0F6FF07C0F7FFF86A050EF7644B
:10224A0003D00800F55005D0F6CFE9FFF7CFEAFF33
:10225A00EF5028EC13F0064A072A06C0F6FF07C01B
:10226A00F7FFF86A050EF76403D00800F55005D0A9
:10227A00F6CFE9FFF7CFEAFFEF500009D8A448EFFD
:10228A0011F04AEF11F01EEF11F01200936A8A98CA
:10229A008A9A340E086EF20EE82EFED7082EFCD764
:1022AA00030EBFEC0FF00D0E086EFC0EE82EFED7E3
:1022BA00082EFCD7030EBFEC0FF0640EE82EFED7F3
:1022CA00030EBFEC0FF0020EBFEC0FF0280E06EC67
:1022DA0013F00C0E06EC13F0060E06EC13F036ECB7
:1022EA0013F0120006C003F007C004F089EC13F0E3
:1022FA00086E06C003F007C004F082EC13F0096E02
:10230A0006C00AF06EEC13F008509DEC12F00A5069
:10231A009DEC12F058EC13F009509DEC12F084EC8D
:10232A0012F00B6E63EC13F00B501200110E056ED7
:10233A00030E066E000E58EC0EF01050D96EDA6AD3
:10234A0011504DEC13F0DF6E1050D96EDA6A010E9F
:10235A00D92612504DEC13F0DF6E1050D96EDA6A9E
:10236A00020ED92613504DEC13F0DF6E1200110E37
:10237A00056E030E066E040E58EC0EF01050D96E60
:10238A00DA6A11504DEC13F0DF6E1050D96EDA6A2A
:10239A00010ED92612504DEC13F0DF6E1050D96E93
:1023AA00DA6A020ED92613504DEC13F0DF6E1200D2
:1023BA002EC030F0EAEF11F02DC022F0300E236E5D
:1023CA002FC024F0256ADCEC05F030C0F6FF060EBB
:1023DA00F76E0800F5500009D8A4F6EF11F0F8EFEF
:1023EA0011F0E1EF11F0000E2E6E000E2D6E1200AC
:1023FA00000E0F6E000E0E6E0CEF12F00DC003F001
:10240A00046A0CC005F00EEC0DF00E4A0F2A0B50B0
:10241A000E24D96EDA6ADF500D6E0D50D8A418EF6B
:10242A0012F01AEF12F003EF12F01200280EF66EF5
:10243A00270EF76E000EF86E0900F5CFB9F000EE20
:10244A0060F0440EEE6AE806FDE100EE49F0140E73
:10245A00EE6AE806FDE15D905D92000EF86E0001FD
:10246A00CFEF07F0330E3D6E31C03EF0000E416EE5
:10247A00000E406E000E486E000E476E3E0E2D6E28
:10248A0032C02EF03D0E2F6EDDEC11F0315040249B
:10249A00D96EDA6ADF6A12000ABE56EF12F058EFF6
:1024AA0012F05EEF12F009C009F00AC00AF06AEFF2
:1024BA0012F009C00BF00AC00CF00B1E0C1E0B4ADE
:1024CA000C2A0BC009F00CC00AF01200F3EC12F04F
:1024DA00C586C7A073EF12F075EF12F06EEF12F017
:1024EA00C9CF04F0F3EC12F0C59AC588C5B880EFDD
:1024FA0012F082EF12F07BEF12F004501200F3ECAC
:10250A0012F0C586C7A08CEF12F08EEF12F087EF9B
:10251A0012F0C9CF04F0F3EC12F0C58AC588C5B829
:10252A0099EF12F09BEF12F094EF12F004501200A0
:10253A00046EF3EC12F004C0C9FFC7B0A7EF12F0A3
:10254A00A9EF12F0A2EF12F0F3EC12F0C5ACB0EF63
:10255A0012F0B3EF12F0010EB4EF12F0000E1200F7
:10256A000F013C953C833C91C250830B1809C26E03
:10257A00F30EC116FC0EC116C050C70B2009C06E5F
:10258A00C050F80B0209C06EC2801200086E08041F
:10259A00D8A4D2EF12F0D4EF12F0D9EF12F007500C
:1025AA00800F096EDCEF12F00750C00F096E095058
:1025BA0006EC13F01200956AF00E9216F00E8916C8
:1025CA008C6AD59CD59AD596D550F80B0309D56E49
:1025DA00D768060ED66EF28AD58E1200C5CF03F0E2
:1025EA001F0E0316D8A4FCEF12F0FEEF12F0F3EF61
:1025FA0012F0C7B403EF13F005EF13F0F3EF12F084
:10260A001200066E8A9806380F0BBFEC0FF00650C0
:10261A00BFEC0FF0060E056E300EE82EFED7052E23
:10262A00FCD700D01200066E6EEC13F0640E9DEC1F
:10263A0012F00638F00B9DEC12F005509DEC12F0EA
:10264A0063EC13F01200056E8A8805380F0BBFEC95
:10265A000FF00550BFEC0FF0210EE82EFED7000058
:10266A001200010E06EC13F0060E076E300EE82E6D
:10267A00FED7072EFCD700D01200040E056E0E0EF0
:10268A0018EC13F0200E056E0F0E18EC13F0120062
:10269A00046E04C003F00F0E031604380F0B0A0D64
:1026AA00F35003241200F3EC12F0C582C5B260EFB6
:1026BA0013F062EF13F05BEF13F01200F3EC12F079
:1026CA00C584C5B46BEF13F06DEF13F066EF13F02A
:1026DA001200F3EC12F0C580C5B076EF13F078EF74
:1026EA0013F071EF13F01200948094829484948A08
:1026FA000F013A6B949C8B9C12000450030B056EDD
:10270A0005500524A10912000450030B056E05505B
:0F271A000524A009120042EC13F012001200FF78
:020000040030CA
:0E000000FF23193CFF3D81FF0FC00FE00F40B2
:00000001FF
