:040000004BEF00F0D2
:100008004B82D9CF21F0DACF22F0F3CF23F0F4CF0F
:1000180024F0F6CF25F0F7CF26F0F8CF27F0F5CF6C
:1000280028F0F2A41AEF00F01CEF00F025EF00F022
:10003800F294E2EC0FF0010E3126000E3222332248
:1000480034229EA02AEF00F02CEF00F02FEF00F0F2
:100058009E9011EC09F09EA234EF00F036EF00F00C
:1000680039EF00F09E92E4EC13F028C0F5FF27C0AA
:10007800F8FF26C0F7FF25C0F6FF24C0F4FF23C011
:10008800F3FF22C0DAFF21C0D9FF4B9211002EEFF7
:1000980012F08CEC09F000016E6F6E51D8A457EF86
:1000A80000F059EF00F05BEF00F028EF02F0C551C7
:1000B800D8B461EF00F063EF00F0FBEF01F0C56B1F
:1000C800B4EC13F028EF02F0030E6E19D8A46FEF0A
:1000D80000F071EF00F028EF02F0010EC46F28EF76
:1000E80002F06E05D8A47BEF00F07DEF00F07EEF04
:1000F80000F0E72B020E6E19D8A485EF00F087EF09
:1001080000F088EF00F0E707030E6E19D8A48FEF10
:1001180000F091EF00F028EF02F0020EC46F28EF14
:1001280002F06E05D8A49BEF00F09DEF00F09EEF63
:1001380000F0E82B020E6E19D8A4A5EF00F0A7EF87
:1001480000F0A8EF00F0E807030E6E19D8A4AFEF8F
:1001580000F0B1EF00F0B3EF00F0030EC46F040E2F
:100168006E19D8A4BAEF00F0BCEF00F028EF02F047
:1001780071EF00F0020E6E19D8A4C5EF00F0C7EFBA
:1001880000F0C8EF00F0E92B6E05D8A4CEEF00F020
:10019800D0EF00F0D2EF00F00F0EEA273B0EEA6531
:1001A800D8EF00F0DAEF00F0DBEF00F0EA6B170EA3
:1001B800E965E1EF00F0E3EF00F0E4EF00F0E96B50
:1001C800030E6E19D8A4EBEF00F0EDEF00F0EFEF9F
:1001D80000F0040EC46F040E6E19D8A4F6EF00F0F8
:1001E800F8EF00F028EF02F091EF00F0020E6E1920
:1001F800D8A401EF01F003EF01F004EF01F0EB2BBD
:100208006E05D8A40AEF01F00CEF01F00EEF01F033
:100218000F0EEC273B0EEC6514EF01F016EF01F022
:1002280017EF01F0EC6B170EEB651DEF01F01FEFF8
:1002380001F020EF01F0EB6B030E6E19D8A427EF45
:1002480001F029EF01F02BEF01F0050EC46F040E49
:100258006E19D8A432EF01F034EF01F028EF02F064
:10026800030EC46F28EF02F0020E6E19D8A43FEFF8
:1002780001F041EF01F042EF01F0ED2B6E05D8A43B
:1002880048EF01F04AEF01F04CEF01F00F0EEE27B6
:100298003B0EEE6552EF01F054EF01F055EF01F01F
:1002A800EE6B170EED655BEF01F05DEF01F05EEFB1
:1002B80001F0ED6B030E6E19D8A465EF01F067EF3E
:1002C80001F069EF01F0060EC46F040E6E19D8A490
:1002D80070EF01F072EF01F028EF02F0040EC46F26
:1002E80028EF02F06E05D8B47CEF01F07EEF01F044
:1002F80087EF01F0020E6E19D8A485EF01F087EFA1
:1003080001F0A1EF01F0EF51D8A48DEF01F08FEFCC
:1003180001F094EF01F0010EEF6FF06BA1EF01F027
:10032800F051D8A49AEF01F09CEF01F0A0EF01F092
:10033800010EF06FA1EF01F0EF6B030E6E19D8A458
:10034800A8EF01F0AAEF01F0ACEF01F0070EC46FBF
:10035800040E6E19D8A4B3EF01F0B5EF01F028EF41
:1003680002F0050EC46F28EF02F06E05D8A4BFEFA7
:1003780001F0C1EF01F0E4EF01F0E70E6B6F72ECF2
:1003880007F086EC13F0000E0001646F010ECCEC50
:1003980012F0F80E0001636F7F0E646FEAEC10F044
:1003A8000B0E00016D6F260E6C6F5D0EE82EFED7EA
:1003B8006C2FFCD76D2FFAD700D00001C46BF769FA
:1003C800020E6E19D8A4EBEF01F0EDEF01F0EEEF9D
:1003D80001F0C46B040E6E19D8A4F5EF01F0F7EF25
:1003E80001F028EF02F0060EC46F28EF02F0C451A6
:1003F8006C6F6D6B6D51000AD8B405EF02F028EFF1
:1004080002F06C51000AD8B468EF00F0010AD8B4C1
:1004180075EF00F0030AD8B495EF00F0010AD8B4DC
:10042800BEEF00F0070AD8B4FAEF00F0010AD8B41A
:1004380038EF01F0030AD8B476EF01F0010AD8B416
:10044800B9EF01F028EF02F012000001F751C419CA
:10045800D8B431EF02F033EF02F08AEF03F086EC04
:1004680013F0C4C0F7F08AEF03F0AC0E916FF30EEF
:10047800926F7E0E936FF6C094F0956BF5C096F070
:10048800976BF1C098F0996BF2C09AF09B6BF3C030
:100498009CF09D6B10EC12F0000E0001646F010ED1
:1004A800CCEC12F0AC0E0001636F646BEAEC10F058
:1004B800AC0E0001916FDA0E926F7F0E936FEDC054
:1004C80094F0956BEEC096F0976B10EC12F0000E5E
:1004D8000001646F020ECCEC12F0AC0E0001636FE9
:1004E800646BEAEC10F0B8EF03F0000E646F010ED5
:1004F800CCEC12F0520E0001636F7F0E646FEAECD1
:1005080010F0AC0E0001916FEB0E926F7F0E936F9F
:10051800E7C094F0956B10EC12F0000E0001646FC8
:10052800020ECCEC12F0AC0E0001636F646BEAECC7
:1005380010F0B8EF03F0000E646F010ECCEC12F06F
:10054800630E0001636F7F0E646FEAEC10F0AC0E6F
:100558000001916FEB0E926F7F0E936FE8C094F0DD
:10056800956B10EC12F0000E0001646F020ECCECDB
:1005780012F097EF02F0000E646F010ECCEC12F04F
:10058800C90E0001636F7F0E646FEAEC10F0AC0EC9
:100598000001916F0A0E926F7F0E936FE9C094F07D
:1005A800956BEAC096F0976B10EC12F0000E000104
:1005B800646F020ECCEC12F097EF02F0000E646F3D
:1005C800010ECCEC12F0740E0001636F7F0E646FA5
:1005D800EAEC10F0AC0E0001916F0A0E926F7F0EDC
:1005E800936FEBC094F0956BECC096F0976B10ECA2
:1005F80012F0000E0001646F020ECCEC12F097EFBF
:1006080002F0000E646F010ECCEC12F0A70E000190
:10061800636F7F0E646FEAEC10F0AC0E0001916F0F
:100628000A0E926F7F0E936FEDC094F0956BEEC03B
:1006380096F0976B10EC12F0000E0001646F020E3A
:10064800CCEC12F097EF02F0000E646F010ECCECC8
:1006580012F0B80E0001636F7F0E646FEAEC10F0C1
:100668000001EF51D8A43BEF03F03DEF03F04BEF4F
:1006780003F0000E646F020ECCEC12F01F0E0001A6
:10068800636F7F0E646FEAEC10F0B8EF03F0F0517F
:10069800D8A451EF03F053EF03F061EF03F0000E1D
:1006A800646F020ECCEC12F0410E0001636F7F0EF6
:1006B800646FEAEC10F0B8EF03F0000E646F020EFE
:1006C800CCEC12F0300E0001636F7F0E646FEAEC21
:1006D80010F0B8EF03F0000E646F010ECCEC12F0CE
:1006E800850E0001636F7F0E646FEAEC10F0000E58
:1006F8000001646F020ECCEC12F0960E0001636FDD
:100708007F0E646FEAEC10F0B8EF03F00001C451FB
:10071800AA6FAB6BAB51000AD8B495EF03F0B8EFF2
:1007280003F0AA51000AD8B439EF02F0010AD8B48C
:1007380079EF02F0030AD8B49FEF02F0010AD8B4A7
:10074800BFEF02F0070AD8B4E2EF02F0010AD8B40A
:1007580005EF03F0030AD8B428EF03F0010AD8B470
:100768006FEF03F0B8EF03F01200000E0001646FA2
:10077800000E636F1AEC11F000016D6FA50E6D1974
:10078800D8B4C9EF03F0CBEF03F012EF04F06C51CB
:10079800D96EDA6A160EDF6E6C51D96EDA6A010EFE
:1007A800D9261A0EDF6E6C51D96EDA6A020ED92676
:1007B800060EDF6E6C51D96EDA6A030ED9261E0E4C
:1007C800DF6E6C51D96EDA6A040ED926080EDF6E18
:1007D8006C51D96EDA6A050ED926DF6A6C51D96E6A
:1007E800DA6A060ED926070EDF6E6C51D96EDA6A00
:1007F800070ED926DF6A6C51D96EDA6A080ED92637
:10080800010EDF6E6C51D96EDA6A090ED926DF6ADD
:100818006CC06BF072EC07F091EF04F06C51D96E7C
:10082800DA6A000E646F010E636F1AEC11F0DF6E66
:1008380000016C51D96EDA6A010ED926000E646F78
:10084800020E636F1AEC11F0DF6E00016C51D96E65
:10085800DA6A020ED926000E646F030E636F1AEC73
:1008680011F0DF6E00016C51D96EDA6A030ED926D9
:10087800000E646F040E636F1AEC11F0DF6E000156
:100888006C51D96EDA6A040ED926000E646F050E13
:10089800636F1AEC11F0DF6E00016C51D96EDA6AE1
:1008A800050ED926000E646F060E636F1AEC11F060
:1008B800DF6E00016C51D96EDA6A060ED926000E79
:1008C800646F070E636F1AEC11F0DF6E00016C5154
:1008D800D96EDA6A070ED926000E646F080E636FA8
:1008E8001AEC11F0DF6E00016C51D96EDA6A080E4D
:1008F800D926000E646F090E636F1AEC11F0DF6ED3
:1009080000016C51D96EDA6A090ED926000E646F9F
:100918000A0E636F1AEC11F0DF6E1200660ED36ECA
:10092800FC0ED3160F013C6B9690E3EC12F023EC0F
:1009380013F0BAEC10F0A00E00016D6F860E6E6F0A
:10094800010E6F6F000E706F7DEC0AF0DFEC13F094
:10095800BDEC13F049EC13F0E70E00016C6FB9EC35
:1009680003F0F28CF28E2C0E00016B6F370E6C6F59
:10097800120ED2EC11F0F40E00016D6F45EC11F07F
:10098800F10E00016D6F6AEC11F031C060F032C0F9
:1009980061F033C062F034C063F0640E0001646F2C
:1009A800000E656F000E666F000E676F1EEC0FF08D
:1009B80000016051611162116311D8A4E6EF04F0DF
:1009C800E8EF04F0F4EF04F040EC0EF06CC0C1F076
:1009D8006DC0C2F0C1C06CF0C2C06DF006EC0AF088
:1009E80031C060F032C061F033C062F034C063F0EF
:1009F800640E0001646F000E656F000E666F000ED6
:100A0800676F1EEC0FF000016051611162116311F4
:100A1800D8A411EF05F013EF05F017EF05F0F40E69
:100A28006D6F45EC11F031C060F032C061F033C039
:100A380062F034C063F0E00E0001646F930E656FDE
:100A4800040E666F000E676F1EEC0FF00001605118
:100A5800611162116311D8A434EF05F036EF05F087
:100A68003AEF05F0F10E6D6F6AEC11F0D8EC06F074
:100A78004CEC0DF04DEC00F031C060F032C061F08C
:100A880033C062F034C063F0320E0001646F000EB0
:100A9800656F000E666F000E676F1EEC0FF00001A9
:100AA8006051611162116311D8A45DEF05F05FEF29
:100AB80005F0C9EF04F029EC02F0C9EF04F04BEFA0
:100AC80000F000018051D96EDA6ADECFF6FFDDCF83
:100AD800F7FF0800F550250AD8A475EF05F077EF61
:100AE80005F012EF06F08051D96EDA6ADE2A000EA0
:100AF800DD22000EBE6F000EBD6FBDC0C3F0BF6922
:100B0800C069886BA4EF05F0C3838051D96EDA6A97
:100B1800DE2A000EDD22A4EF05F0010E886FA4EF97
:100B280005F08051D96EDA6ADECFF6FFDDCFF7FF28
:100B38000800F550300AD8B488EF05F091EF05F0B9
:100B48008851D8B4AAEF05F0ACEF05F095EF05F0A1
:100B580080C060F081C061F04CEC0CF060C0BDF06A
:100B680061C0BEF00001BEBFBEEF05F0BCEF05F0EE
:100B7800C3EF05F0C381BD6DBE1FD8B0BE2B805139
:100B8800D96EDA6ADECF89F0DDCF8AF089C0F6FF48
:100B98008AC0F7FF0800F550640AD8B4D6EF05F00C
:100BA800D8EF05F0E6EF05F089C0F6FF8AC0F7FF39
:100BB8000800F550690AD8A4E4EF05F0E6EF05F05F
:100BC80009EF06F08151D96EDA6A020EDF26DF5C82
:100BD800D96EDA6ADECF84F0DECF85F0010E892582
:100BE800826F000E8A21836F8051D96EDA6A82C0C3
:100BF800DEFF83C0DDFF7FC074F084C075F085C060
:100C080076F024EC06F023EF06F000018051D96E4F
:100C1800DA6ADE2A000EDD2223EF06F08051D96E53
:100C2800DA6ADECFF6FFDDCFF7FF0800F550606F18
:100C3800616B7FC062F0A3EC0CF009EF06F01200C4
:100C4800010E0001796F76BF2CEF06F02FEF06F04A
:100C5800010E30EF06F0000E7C6FBDC07AF0BEC00A
:100C68007BF07C51D8B43BEF06F03DEF06F054EF33
:100C780006F07A07D8A07B077C51D8A446EF06F087
:100C880048EF06F04EEF06F0000E786F2B0E776FE8
:100C980052EF06F0000E786F2D0E776F77C07CF05C
:100CA800000E7E6F1F0E7D6FE66B88EF06F07D07E6
:100CB800D8A07E077D51C70FD96EDA6A75C060F07B
:100CC80076C061F0000E636F0A0E626F9CEC0BF049
:100CD80060C066F061C067F04AEC12F0000166512E
:100CE800300FDF6E796B7A07D8A07B0775C060F08C
:100CF80076C061F0000E636F0A0E626FE0EC0AF0D6
:100D080060C075F061C076F000017EBF94EF06F018
:100D18007E5108E17D05D8A094EF06F096EF06F025
:100D2800BBEF06F075517611D8A49DEF06F09FEF42
:100D380006F05BEF06F07951D8A4A5EF06F0A7EF0F
:100D480006F05BEF06F07BBFB2EF06F07B5108E1DF
:100D58007A05D8A0B2EF06F0B4EF06F0BBEF06F0C4
:100D6800C3B3B9EF06F0BBEF06F05BEF06F07C51BA
:100D7800D8B4C1EF06F0C3EF06F0CCEF06F07D075C
:100D8800D8A07E077D51C70FD96EDA6A7CC0DFFF15
:100D980074C06DF07D51C70F6E6F7AC06FF07BC065
:100DA80070F0D6EC0EF012000001F6513C0DF3CFB6
:100DB80067F0F4CF68F0F55167256D6F000E682174
:100DC8006E6FE9513C0DF3CF67F0F4CF68F0EA514C
:100DD8006725696F000E68216A6FEB513C0DF3CFF0
:100DE80067F0F4CF68F0EC5167256B6F000E68214F
:100DF8006C6F6B51695D6C516A59D8B006EF07F09A
:100E080008EF07F020EF07F069516D5D6A516E59E0
:100E1800D8A011EF07F013EF07F038EF07F06B5188
:100E28006D5D6C516E59D8B01CEF07F01EEF07F0DE
:100E380038EF07F038EF07F069516D5D6A516E5968
:100E4800D8B029EF07F02BEF07F01EEF07F06B5132
:100E58006D5D6C516E59D8B034EF07F036EF07F07E
:100E680038EF07F01EEF07F0C1C060F0C2C061F0B4
:100E7800000E636F640E626FA7EC0FF00001E7517C
:100E8800605D000E6159D8B04CEF07F04EEF07F0E7
:100E980052EF07F0010EC66F6CEF07F0E851676F6D
:100EA800686BC1C060F0C2C061F0000E636F640E71
:100EB800626FA7EC0FF000016751605D68516159DE
:100EC800D8A069EF07F06BEF07F06CEF07F0C66B7F
:100ED800C6B102D08D9001D08D801200000E0001A5
:100EE800646F000E636FA50E656F8CEC0EF0000E3C
:100EF8000001646F010E636F6B51D96EDA6ADF50BF
:100F0800656F8CEC0EF0000E0001646F020E636FCB
:100F18006B51D96EDA6A010ED926DF50656F8CECF9
:100F28000EF0000E0001646F030E636F6B51D96EF3
:100F3800DA6A020ED926DF50656F8CEC0EF0000ECF
:100F48000001646F040E636F6B51D96EDA6A030E89
:100F5800D926DF50656F8CEC0EF0000E0001646F2F
:100F6800050E636F6B51D96EDA6A040ED926DF500D
:100F7800656F8CEC0EF0000E0001646F060E636F57
:100F88006B51D96EDA6A050ED926DF50656F8CEC85
:100F98000EF0000E0001646F070E636F6B51D96E7F
:100FA800DA6A060ED926DF50656F8CEC0EF0000E5B
:100FB8000001646F080E636F6B51D96EDA6A070E11
:100FC800D926DF50656F8CEC0EF0000E0001646FBF
:100FD800090E636F6B51D96EDA6A080ED926DF5095
:100FE800656F8CEC0EF0000E0001646F0A0E636FE3
:100FF8006B51D96EDA6A090ED926DF50656F8CEC11
:101008000EF012000001696B67BF0FEF08F00DEFDB
:1010180008F019EF08F0671F661F651F646D000E62
:10102800652366236723010E696F63BF20EF08F00D
:101038001EEF08F02AEF08F0631F621F611F606D42
:10104800000E612362236323010E691B000E6A6F81
:10105800000E6B6F000E6C6F000E6D6F64516511A2
:1010680066116711D8B43BEF08F03DEF08F073EF55
:1010780008F0010E686F47EF08F0D89064376537BD
:1010880066376737682B67AF4CEF08F04EEF08F00C
:1010980041EF08F0D8906A376B376C376D37645179
:1010A800605D655161596651625967516359D8A0AD
:1010B80060EF08F062EF08F06BEF08F06451605FD2
:1010C8006551615B6651625B6751635B6A81D89069
:1010D8006733663365336433682F4EEF08F0695120
:1010E800D8B479EF08F07BEF08F083EF08F06D1FB4
:1010F8006C1F6B1F6A6D000E6B236C236D236AC017
:1011080060F06BC061F06CC062F06DC063F01200FB
:101118000A6A08BE94EF08F092EF08F09EEF08F014
:10112800081E071E061E056C000E0622072208224E
:10113800010E0A6E04BEA5EF08F0A3EF08F0AFEFAA
:1011480008F0041E031E021E016C000E0222032278
:101158000422010E0A1A000E0B6E000E0C6E000E11
:101168000D6E000E0E6E0550061007100810D8B44C
:10117800C0EF08F0C2EF08F0F8EF08F0010E096EB2
:10118800CCEF08F0D8900536063607360836092A17
:1011980008AED1EF08F0D3EF08F0C6EF08F0D8900A
:1011A8000B360C360D360E360550015C06500258CB
:1011B8000750035808500458D8A0E5EF08F0E7EFA7
:1011C80008F0F0EF08F00550015E0650025A07508B
:1011D800035A0850045A0B80D89008320732063256
:1011E8000532092ED3EF08F00A50D8B4FEEF08F004
:1011F80000EF09F008EF09F00E1E0D1E0C1E0B6C17
:10120800000E0C220D220E220BC001F00CC002F0C1
:101218000DC003F00EC004F01200CF68060ECE6EAB
:101228004150D8B41AEF09F01CEF09F08BEF09F020
:1012380037503810D8B423EF09F025EF09F02AEF1A
:1012480009F03706D8A038068BEF09F0355036106C
:10125800D8B431EF09F033EF09F089EF09F0422AE9
:10126800040E3524176E000E3620186E17C0F6FFD0
:1012780018C0F7FF0800F550426045EF09F047EF46
:1012880009F089EF09F04250020DF3CF17F0F4CFBF
:1012980018F035C0F6FF36C0F7FF17500900F524DF
:1012A800196E18500900F5201A6E19C0F6FF1AC0F9
:1012B800F7FF0900F5CF0FF00A00F5CF10F0425004
:1012C800020DF3CF1BF0F4CF1CF0020E35241D6E77
:1012D800000E36201E6E1DC0F6FF1EC0F7FF1B5005
:1012E8000900F5241F6E1C500900F520206E1FC050
:1012F800F6FF20C0F7FF0900F5CF11F00A00F5CF7F
:1013080012F0F4EC0BF08BEF09F0C6EC13F01200BE
:1013180082B091EF09F096EF09F00001676B672B37
:1013280098EF09F00001676B6751606F616B4A0EB7
:10133800626F9FEC0DF00009D8B4A5EF09F0A7EF94
:1013480009F0AAEF09F0010E05EF0AF082B2AFEF3B
:1013580009F0B4EF09F00001676B672BB6EF09F0ED
:101368000001676B6751606F616B490E626F9FEC9C
:101378000DF00009D8B4C3EF09F0C5EF09F0C8EFC4
:1013880009F0020E05EF0AF082B4CDEF09F0D2EFB2
:1013980009F00001676B672BD4EF09F00001676B58
:1013A8006751606F616B480E626F9FEC0DF000092A
:1013B800D8B4E1EF09F0E3EF09F0E6EF09F0030E26
:1013C80005EF0AF082BAEBEF09F0F0EF09F000013F
:1013D800676B672BF2EF09F00001676B6751606F6D
:1013E800616B470E626F9FEC0DF00009D8B4FFEFF8
:1013F80009F001EF0AF004EF0AF0040E05EF0AF015
:10140800000E1200100E00016C5D270E6D59D8A059
:1014180010EF0AF012EF0AF016EF0AF0270E6D6FC0
:101428000F0E6C6F6CC060F06DC061F0030E636FDF
:10143800E80E626FA7EC0FF0C30E00016025F66E90
:101448007E0E6121F76E0800F5CF29F0000E636F5C
:10145800640E626F6CC060F06DC061F0A7EC0FF0B5
:1014680060C067F061C068F0000E00016A6F0A0E84
:10147800696F87EC10F0C30E00016725F66E7E0ECB
:101488006821F76E0800F5CF2AF0000E636F0A0E88
:10149800626F6CC060F06DC061F0A7EC0FF060C0C7
:1014A80067F061C068F0000E00016A6F0A0E696F8C
:1014B80087EC10F0C30E00016725F66E7E0E6821DA
:1014C800F76E0800F5CF2BF06CC067F06DC068F0C0
:1014D800000E6A6F0A0E696F87EC10F0C30E0001E8
:1014E8006725F66E7E0E6821F76E0800F5CF2CF0A2
:1014F8001200E70E0F013A17180E941200016D51F1
:101508006E116F117011D8A48CEF0AF08EEF0AF0EB
:1015180096EF0AF0A00E6D6F860E6E6F010E6F6F5C
:10152800000E706F000E606F120E616F7A0E626FA0
:10153800000E636F6DC071F06EC072F06FC073F013
:1015480070C074F0020ED8907137723773377437E1
:10155800E82EA7EF0AF071C064F072C065F073C09E
:1015680066F074C067F0F9EC0CF0FF0E000160251E
:10157800756FFF0E6121766FFF0E6221776FFF0E88
:101588006321786F7851771108E17605D8A0CFEFFD
:101598000AF0D1EF0AF0D9EF0AF0FF0E756F000ECE
:1015A800766F000E776F000E786F75C0C8FF800EDB
:1015B800C76E280EC66E12000001656B63BFE9EFA7
:1015C8000AF0E7EF0AF0EFEF0AF0626D631FD8B098
:1015D800632B010E656F61BFF6EF0AF0F4EF0AF0B6
:1015E800FCEF0AF0606D611FD8B0612B010E651B1E
:1015F800000E676F000E666F62516311D8B407EF73
:101608000BF009EF0BF031EF0BF0010E646F11EFE7
:101618000BF0D89062376337642B63AF16EF0BF08B
:1016280018EF0BF00DEF0BF0D89066376737625163
:10163800605D63516159D8A024EF0BF026EF0BF0E1
:101648002BEF0BF06251605F6351615B6681D8904C
:1016580063336233642F18EF0BF06551D8B437EF5A
:101668000BF039EF0BF03DEF0BF0666D671FD8B04C
:10167800672B66C060F067C061F0120000016E5110
:101688006F11D8A44AEF0BF04CEF0BF050EF0BF0B2
:10169800BA948D9292EF0BF0240E606FF40E616F86
:1016A800000E626F000E636F6EC064F06FC065F06D
:1016B800666B676B06EC08F060C072F061C073F08F
:1016C80062C074F063C075F0000172517311741137
:1016D8007511D8B472EF0BF074EF0BF079EF0BF0D3
:1016E8007207000E735B745B755B7551741108E1CA
:1016F8007305D8A082EF0BF084EF0BF08CEF0BF0A2
:10170800FF0E726F000E736F000E746F000E756F10
:1017180072C0BBFFBC6A9E929D82BA8470C037F0CB
:1017280071C038F0CF68060ECE6E010E416E120001
:101738000001656B61BFA5EF0BF0A3EF0BF0ABEFFA
:101748000BF0606D611FD8B0612B010E656F63BF30
:10175800B2EF0BF0B0EF0BF0B6EF0BF0626D631F5A
:10176800D8B0632B62516311D8B4BDEF0BF0BFEF53
:101778000BF0E3EF0BF0010E646FC7EF0BF0D8909E
:1017880062376337642B63AFCCEF0BF0CEEF0BF00F
:10179800C3EF0BF06251605D63516159D8A0D7EF78
:1017A8000BF0D9EF0BF0DDEF0BF06251605F635186
:1017B800615BD89063336233642FCEEF0BF06551D1
:1017C800D8B4E9EF0BF0EBEF0BF0EFEF0BF0606D37
:1017D800611FD8B0612B60C060F061C061F0120079
:1017E8000F501010D8A4FBEF0BF0FDEF0BF001EF3A
:1017F8000CF0BA948D9242EF0CF0240E016EF40EA8
:10180800026E000E036E000E046E0FC005F010C0CD
:1018180006F0076A086A8CEC08F001C013F002C0F1
:1018280014F003C015F004C016F01350141015106E
:101838001610D8B422EF0CF024EF0CF029EF0CF0BE
:101848001306000E145A155A165A1650151008E1A8
:101858001404D8A032EF0CF034EF0CF03CEF0CF08D
:10186800FF0E136E000E146E000E156E000E166E2F
:1018780013C0BBFFBC6A9E929D82BA8411C037F028
:1018880012C038F0CF68060ECE6E010E416E1200FF
:10189800000E0001666F000E656F6051D96EDA6A3E
:1018A800DECFF6FFDDCFF7FF0800F5502A0AD8A4EF
:1018B80060EF0CF062EF0CF08BEF0CF06051D96E1A
:1018C800DA6ADE2A000EDD226151D96EDA6A020E6A
:1018D800DF26DF5CD96EDA6ADECF65F0DECF66F030
:1018E8009EEF0CF00A0E6503F3CF62F0F4CF63F0BD
:1018F8006603F350632764516225656F000E632108
:10190800666F6051D96EDA6ADE2A000EDD226051F8
:10191800D96EDA6ADECFF6FFDDCFF7FF0800F550A3
:10192800D00F646F090E64659CEF0CF09EEF0CF00D
:1019380076EF0CF065C060F066C061F0120000013F
:101948006251D8B4AAEF0CF0ACEF0CF0B4EF0CF085
:101958006251D8A4B2EF0CF0B4EF0CF0B9EF0CF070
:101968006051E6EC13F0F8EF0CF06251D96EDA6AC8
:10197800090ED926DE50DE10D8B4C5EF0CF0C7EF3B
:101988000CF0E0EF0CF06251D96EDA6A090ED92634
:101998006251E16EE26A020EE126DE50E65CE65034
:1019A800800A676FDE50800A6759D8B0DEEF0CF006
:1019B800E0EF0CF0F8EF0CF06251D96EDA6A020E23
:1019C800D926DF50636F6251D96EDA6ADF5063251A
:1019D800D96EDA6A60C0DFFF6251D96EDA6A020E28
:1019E800D926DE2A000EDD221200000E0001686FE3
:1019F800000E696F000E6A6F000E6B6F64516511FF
:101A080066116711D8B40BEF0DF00DEF0DF043EF31
:101A18000DF0010E6C6F17EF0DF0D8906437653735
:101A2800663767376C2B67AF1CEF0DF01EEF0DF0B4
:101A380011EF0DF0D890683769376A376B37645102
:101A4800605D655161596651625967516359D8A003
:101A580030EF0DF032EF0DF03BEF0DF06451605FA9
:101A68006551615B6651625B6751635B6881D890C1
:101A780067336633653364336C2F1EEF0DF068C02F
:101A880060F069C061F06AC062F06BC063F0120078
:101A98000001EF51D8A453EF0DF055EF0DF057EFBB
:101AA8000DF09EEF0DF0020EF4615DEF0DF05FEFAB
:101AB8000DF087EF0DF0ED51F619D8A466EF0DF093
:101AC80068EF0DF088EF0DF0EE51F519D8A46FEF1F
:101AD8000DF071EF0DF088EF0DF04650D8A477EFB8
:101AE8000DF079EF0DF088EF0DF0C551D8A47FEF18
:101AF8000DF081EF0DF088EF0DF0010EC56F010EAE
:101B0800466E88EF0DF0466AC551D8B48EEF0DF0D9
:101B180090EF0DF09EEF0DF0E2EC13F00009D8A461
:101B280098EF0DF09AEF0DF09EEF0DF00001F051D7
:101B38007FEC12F012002D50315C0001636F2E50C3
:101B48003258646F2F503358656F30503458666F71
:101B580066516511641107E10A0E635DD8B0B7EFED
:101B68000DF0B9EF0DF0BCEF0DF0000EEFEF0DF03A
:101B780060516111D8B4C3EF0DF0C5EF0DF0E9EF76
:101B88000DF06251D96EDA6ADF50D8A4CEEF0DF0AD
:101B9800D0EF0DF0B9EF0DF060516111D8B4D7EF67
:101BA8000DF0D9EF0DF0B9EF0DF06251D96EDA6A88
:101BB800010EDF6E31C02DF032C02EF033C02FF091
:101BC80034C030F0010EEFEF0DF06251D96EDA6AD1
:101BD800DF6AB9EF0DF012000001696FA9EC13F08C
:101BE800640EB3EC12F000016939F00BB3EC12F09B
:101BF80093EC13F0650EB3EC12F000016C6B34EF4C
:101C08000EF0FF0E6325646F656BFF0E65236C5144
:101C1800666F676B6451665D6751800A686F6551CE
:101C2800800A6859D8A01BEF0EF01DEF0EF026EFC2
:101C38000EF099EC12F00001646F64516A6F6B6BDF
:101C48002DEF0EF065EC12F00001646F64516A6FBD
:101C58006B6B62516C25D96EDA6A6AC0DFFF6C2B38
:101C680063516C5DD8A03BEF0EF03DEF0EF005EF31
:101C78000EF09EEC13F01200C282030E00016E6F8C
:101C8800970EE82EFED76E2FFCD700D0C2B24FEFCA
:101C98000EF051EF0EF04AEF0EF0C45000016F6FD6
:101CA8006E6BC3506E25766F000E6F21776F76C00E
:101CB80060F077C061F0626B636BF40E646F010EC5
:101CC800656F000E666F000E676F51EC10F060C014
:101CD80072F061C073F062C074F063C075F072C0D6
:101CE8006EF073C06FF074C070F075C071F00B0EB9
:101CF80084EF0EF00001D890713370336F336E3378
:101D0800E82E7EEF0EF06EC06CF06FC06DF0120022
:101D180063C060F064C061F0D7EC13F000016A6F33
:101D280063C069F0000E686F000E676FA9EC13F0CE
:101D380000016A51B3EC12F000016951B3EC12F0E2
:101D480000016551B3EC12F09EEC13F0A9EC13F00E
:101D580000016A51B3EC12F00009D8B4B6EF0EF0E6
:101D6800B8EF0EF0BCEF0EF09EEC13F0D5EF0EF0CE
:101D78009EEC13F0030E0001666F970EE82EFED757
:101D8800662FFCD700D00001674B682B685109E12A
:101D98000F0E675DD8A0D3EF0EF0D5EF0EF0AAEFC7
:101DA8000EF012000001C3A1DCEF0EF0DEEF0EF022
:101DB800E4EF0EF06EC068F06DC069F0B2EC11F09F
:101DC800000170BFECEF0EF0EAEF0EF0F0EF0EF04E
:101DD800000E706F000E6F6F000E736F000E726F43
:101DE80001EF0FF0000E616F200E606F6DC062F0A2
:101DF800A3EC0CF00001724B732B6F51725D7351A1
:101E0800800A716F7051800A7159D8A00EEF0FF0D7
:101E180010EF0FF0F6EF0EF0C3B115EF0FF017EF5C
:101E28000FF01DEF0FF06EC068F06DC069F0B2ECF6
:101E380011F0120000016451651166116711D8B4E0
:101E480028EF0FF02AEF0FF05AEF0FF0010E686F2E
:101E580034EF0FF0D8906437653766376737682BEB
:101E680067AF39EF0FF03BEF0FF02EEF0FF0645133
:101E7800605D655161596651625967516359D8A0CF
:101E880048EF0FF04AEF0FF052EF0FF06451605F28
:101E98006551615B6651625B6751635BD8906733DC
:101EA800663365336433682F3BEF0FF060C060F032
:101EB80061C061F062C062F063C063F012000001AB
:101EC800616F61C060F0010E000160178A506019EF
:101ED800FE0B60198A6E61C060F0D8906033010E05
:101EE800601760478A506019FD0B60198A6E61C0DF
:101EF80060F0D8906033D8906033010E6017604767
:101F080060478A506019FB0B60198A6E61C060F0E7
:101F1800D8906033D8906033D8906033010E601742
:101F28006047604760478A506019F70B60198A6EEE
:101F38008A8A210EE82EFED700008A9A210EE82E02
:101F4800FED700001200000E0001666F000E656FDC
:101F580062516311D8B4B3EF0FF0B5EF0FF0DDEFB6
:101F68000FF0010E646FBDEF0FF0D8906237633742
:101F7800642B63AFC2EF0FF0C4EF0FF0B9EF0FF0AF
:101F8800D890653766376251605D63516159D8A052
:101F9800D0EF0FF0D2EF0FF0D7EF0FF06251605F84
:101FA8006351615B6581D89063336233642FC4EFFA
:101FB8000FF065C060F066C061F01200F00E89167F
:101FC80044502C08D96EDA6ADF508C6EF8EF0FF0A7
:101FD80089800BEF10F089820BEF10F089840BEFEA
:101FE80010F089860BEF10F04450000AD8B4ECEFDB
:101FF8000FF0010AD8B4EFEF0FF0030AD8B4F2EFEC
:102008000FF0010AD8B4F5EF0FF00BEF10F0442AE7
:10201800030E446412EF10F014EF10F015EF10F0F7
:10202800446AD768060ED66EF294120076C035F070
:1020380077C036F0426A76C0F6FF77C0F7FF09002E
:10204800F5CF78F00900F5CF79F078C0F6FF79C0C0
:10205800F7FF0900F5CF6EF00A00F5CF6FF0020E1A
:10206800000176257A6F000E77217B6F7AC0F6FF24
:102078007BC0F7FF0900F5CF7CF00900F5CF7DF0B4
:102088007CC0F6FF7DC0F7FF0900F5CF70F00A00AD
:10209800F5CF71F042EC0BF01200000E0001686FF2
:1020A800000E696F000E6A6F000E6B6F60A15FEF24
:1020B80010F061EF10F069EF10F064516827655176
:1020C800692366516A2367516B23D8906437653753
:1020D80066376737D8906333623361336033605152
:1020E800611162116311D8A47CEF10F07EEF10F03B
:1020F8005AEF10F068C060F069C061F06AC062F021
:102108006BC063F01200000169516A11D8B48FEFF7
:1021180010F091EF10F0B5EF10F0010E6B6F99EF22
:1021280010F0D89069376A376B2B6AAF9EEF10F0C2
:10213800A0EF10F095EF10F06951675D6A5168598A
:10214800D8A0A9EF10F0ABEF10F0AFEF10F0695185
:10215800675F6A51685BD8906A3369336B2FA0EF69
:1021680010F067C067F068C068F01200936A8A9838
:102178008A9A340E0001656FF10EE82EFED7652F9E
:10218800FCD700D0030E63EC0FF00D0E0001656F55
:10219800FB0EE82EFED7652FFCD700D0030E63ECAC
:1021A8000FF0640EE82EFED7030E63EC0FF0020E5C
:1021B80063EC0FF0280EF9EC12F00C0EF9EC12F0AB
:1021C800060EF9EC12F086EC13F0120001EF11F094
:1021D80063C0F6FF64C0F7FFF86A050EF76403D022
:1021E8000800F55005D0F6CFE9FFF7CFEAFFEF502A
:1021F8005BEC13F00001634B642B63C0F6FF64C013
:10220800F7FFF86A050EF76403D00800F55005D00B
:10221800F6CFE9FFF7CFEAFFEF500009D8A417EF90
:1022280011F019EF11F0ECEF10F0120063C060F03C
:1022380064C061F0D7EC13F00001656F63C060F013
:1022480064C061F0CFEC13F00001666F63C067F003
:10225800A9EC13F000016551B3EC12F000016751CD
:10226800B3EC12F093EC13F000016651B3EC12F0EA
:1022780099EC12F00001686F9EEC13F000016851B0
:1022880012006E0E0001626F030E636F000EF0EC19
:102298000DF000016D51D96EDA6A6E5179EC13F0C8
:1022A800DF6E00016D51D96EDA6A010ED9266F51C1
:1022B80079EC13F0DF6E00016D51D96EDA6A020E07
:1022C800D926705179EC13F0DF6E12006E0E000102
:1022D800626F030E636F040EF0EC0DF000016D5198
:1022E800D96EDA6A6E5179EC13F0DF6E00016D5128
:1022F800D96EDA6A010ED9266F5179EC13F0DF6EC8
:1023080000016D51D96EDA6A020ED926705179EC46
:1023180013F0DF6E12008CC08FF08DC090F09EEF2E
:1023280011F08BC07FF08F0E0001806F8EC081F09E
:1023380065EC05F08FC0F6FF90C0F7FF0800F55078
:102348000009D8A4AAEF11F0ACEF11F095EF11F045
:10235800000E00018C6F000E8B6F1200000E000142
:102368006C6F000E6B6FC3EF11F06AC060F0616BA9
:1023780069C062F0A3EC0CF000016B4B6C2B685148
:102388006B25D96EDA6ADF506A6F6A51D8A4CFEF2D
:1023980011F0D1EF11F0B9EF11F0120000016D6FDB
:1023A800A9EC13F0640EB3EC12F0000EB3EC12F0CB
:1023B80000016C51F1EC11F0B3EC12F000016B511B
:1023C800F1EC11F0B3EC12F000016D51F1EC11F0E9
:1023D800B3EC12F09EEC13F0120000016A6F6AC0B1
:1023E80060F00001616B000E636F0A0E626F9CEC77
:1023F8000BF060C068F061C069F06AC060F000016D
:10240800616B000E636F0A0E626FE0EC0AF0000168
:102418006039F00B68111200940E00019E6F91C094
:102428009FF0000EA26F000EA16F000EA96F000EA4
:10243800A86F9F0E8B6F92C08CF093C08DF09E0E8C
:102448008E6F8FEC11F000019151A125D96EDA6AD7
:10245800DF6A1200CE0EF66E270EF76E000EF86ECB
:102468000900F5CFF7F000EEBDF03A0EEE6AE80687
:10247800FDE100EE29F0220EEE6AE806FDE14B9040
:102488004B92000EF86E000192EF04F0000167BF56
:1024980050EF12F052EF12F058EF12F066C066F0EB
:1024A80067C067F064EF12F066C068F067C069F053
:1024B800681F691F684B692B68C066F069C067F0C0
:1024C80012000FEC13F0C586C7A06DEF12F06FEF86
:1024D80012F068EF12F0C9CF61F00FEC13F0C59A53
:1024E800C588C5B87AEF12F07CEF12F075EF12F0DC
:1024F80000016151120000017E6F00017E51D8A4D5
:1025080088EF12F08AEF12F092EF12F0EA0E766F6F
:102518007E0E776F1AEC10F098EF12F0E50E766FDA
:102528007E0E776F1AEC10F012000FEC13F0C586D0
:10253800C7A0A1EF12F0A3EF12F09CEF12F0C9CFE1
:1025480061F00FEC13F0C58AC588C5B8AEEF12F07C
:10255800B0EF12F0A9EF12F0000161511200000172
:10256800616F0FEC13F061C0C9FFC7B0BEEF12F086
:10257800C0EF12F0B9EF12F00FEC13F0C5ACC7EFD3
:1025880012F0CAEF12F0010ECBEF12F0000E12009B
:102598000001656F00016505D8A4D5EF12F0D7EFEB
:1025A80012F0DCEF12F06451800F666FDFEF12F06B
:1025B8006451C00F666F6651F9EC12F012000F01FA
:1025C8003C953C833C91C250830B1C09C26EF30EB0
:1025D800C116FC0EC116C050C70B2009C06EC050F2
:1025E800F80B0209C06EC28012000001636F8A985E
:1025F800000163390F0B63EC0FF00001635163ECCA
:102608000FF0060E0001626F300EE82EFED7622F23
:10261800FCD700001200C5CF60F01F0E0001601744
:10262800D8A419EF13F01BEF13F00FEF13F0C7B492
:1026380020EF13F022EF13F00FEF13F01200956A5A
:10264800F00E9216F00E89168C6AD59CD59AD596FE
:10265800D550F80B0309D56ED768060ED66EF28AE8
:10266800D58E12000001636FA9EC13F0640EB3EC71
:1026780012F000016339F00BB3EC12F00001625163
:10268800B3EC12F09EEC13F012000F013C939692FB
:102698008D92070EBA6EBA94BB6A310ECD6E000EDB
:1026A800CF6E000ECE6E9E909D80416A1200000192
:1026B800626F8A88000162390F0B63EC0FF000012A
:1026C800625163EC0FF0210EE82EFED700001200D5
:1026D800040E0001626F0E0E36EC13F0200E00019E
:1026E800626F0F0E36EC13F012000001616F61C0CB
:1026F80060F00F0E0001601761390F0B0A0DF350DF
:1027080060251200010EF9EC12F0060E0001646F4C
:10271800300EE82EFED7642FFCD7000012000FEC15
:1027280013F0C582C5B29BEF13F09DEF13F096EF3F
:1027380013F012000FEC13F0C584C5B4A6EF13F024
:10274800A8EF13F0A1EF13F012000FEC13F0C580FF
:10275800C5B0B1EF13F0B3EF13F0ACEF13F0120004
:10276800BA949D928D92416A000E356E000E366EB7
:102778001200948094829484948A0F013A6B949CFA
:102788008B9C1200BA949D928D92416A000E356E10
:10279800000E366E120000016151030B626F625128
:1027A8006225A109120000016151030B626F625199
:1027B8006225A00912006CEC13F0120041501200BF
:0727C8008D7212001200FFE8
:107EC200003F065B4F666D7D077F6FC8006400C888
:107ED200006400C800E803D0070000D0070000D00B
:107EE200070000F17EEF7E01D97ECD7E066400B8E8
:107EF2000B253032643A2530326420253032642F2B
:107F0200253032642F256400253032643A25303220
:107F1200642020202020202020202020004F4646C0
:107F22002020202020202020202020202000424528
:107F320045502020202020202020202020200053D7
:107F42004952454E202020202020202020202000A1
:107F52005365742054656D70204C4F573A20202091
:107F6200005365742054656D7020484947483A2093
:107F720020004865617420456E642054696D653A3D
:107F8200202000536176652053657474696E6773AF
:107F92003F20200055503D59657320444F574E3DB8
:107FA2004E6F20200053657420416C61726D205425
:107FB200696D653A200053657420416C61726D20D1
:107FC200546F6E653A200048656174205374617283
:107FD200742054696D653A00414C41524D3A202556
:107FE2003032643A25303264002564204320202058
:0E7FF2002020202020005361766564210000CD
:020000040030CA
:0E000000FF23193CFF3D81FF0FC00FE00F40B2
:00000001FF
